:020000041000EA
:1000000000B5324B212058609868022188439860DF
:10001000D860186158612E4B002199600221596106
:100020000121F02299502B49196001219960352056
:1000300000F044F80222904214D00621196600F024
:1000400034F8196E01211966002018661A6600F04E
:100050002CF8196E196E196E052000F02FF8012189
:100060000842F9D1002199601B49196000215960AB
:100070001A491B48016001219960EB211966A021F2
:10008000196600F012F800219960164914480160C1
:100090000121996001BC002800D000471248134993
:1000A000086003C880F30888084703B5996A0420EC
:1000B0000142FBD001200142F8D103BD02B5186610
:1000C0001866FFF7F2FF186E186E02BD00000240BE
:1000D000000000180000070000035F00212200005C
:1000E000F4000018222000A00001001008ED00E03C
:1000F00000000000000000000000000074B24E7A12
:1001000000200420F7010010CB010010CD010010E9
:10011000C9010010C9010010C9010010C901001077
:10012000C9010010C9010010C9010010CF01001061
:10013000C9010010C9010010D1010010D301001045
:10014000C1010010C1010010C1010010C101001067
:10015000C1010010C1010010C1010010C101001057
:10016000C1010010C1010010C1010010C101001047
:10017000C1010010C1010010C1010010C101001037
:10018000C1010010C1010010C1010010C101001027
:10019000C1010010C1010010C1010010C101001017
:1001A000C1010010C1010010C1010010C101001007
:1001B000C1010010C1010010C1010010C1010010F7
:1001C000EFF30580103800BE00BE00BE00BE00BECA
:1001D00000BE00BEF2EB88716C3F0110943F01102D
:1001E0003802001090A31AE71E481F49086006C88D
:1001F00081F3088810471D480068002801D019487D
:10020000F3E70DA40ECC002902D000F012F8F9E7B4
:100210001749184A002000E001C19142FCD116495B
:100220008847164988471649884700BEFDE701C937
:1002300001C29A42FBD37047943F0110C0000020D6
:10024000741800204857011000000420000004200A
:100250004857011000100420001004200000000086
:10026000704700000000000008ED00E0000000D032
:10027000741800205420002079410010150300104C
:1002800039410010F8B5C04606480749091A8B10D5
:10029000C90FC91810B5491003D0044B002B00D06A
:1002A000984710BD7418002074180020000000004A
:1002B000054B10B5002B03D00449054800E000BFF2
:1002C000FFF7E2FF10BDC04600000000041E002042
:1002D0001C09011010B5072909D8002A0DD01F23C9
:1002E0000B4001229A4003681343036010BD074886
:1002F00008230A00064904F0E7FC1F230B400122F3
:100300009A40036893430360F0E7C0462C0901104C
:1003100020090110F0B5CE46474680B583B004F001
:1003200085F8AD4800F074FAAC4800F013FAAC4818
:1003300000F0D0F94DE0AB4B1978A74800230093AB
:10034000FF2200F0A7FA84E0EAB2A5484946FFF789
:10035000C1FF0134072C18DC07231B1B99469F485B
:1003600000F01CFAA04902F0E0FB051CF0000019A7
:1003700002F032FC291C02F0EEFB0125391C02F0D0
:100380001BFC0028E0D10025DEE7954C206800F03A
:1003900052F9C2B24346591CC9B20023200000F0F2
:1003A0005BF90023236001360B2E01DC0024D1E72A
:1003B0008B4800F04BF901239C46E0444346072B51
:1003C00007DC0026F0E7894A136801331360C82B65
:1003D0005DDC874A1368013313600F2B02DD1300C5
:1003E00000221A607C4C200000F064FA431E984101
:1003F000804B1870200000F05DFA7D4B19680841B1
:10040000C00707D5774B1B68994203D07A4A13601F
:10041000744B1960C9B2704CFF230093FF22200077
:1004200000F038FA744B197800230093FF33FF2251
:10043000200000F02FFA6F4B1B78002B00D17AE7D9
:10044000684B1978644800230093FF33002200F0C2
:1004500021FA614800F0A6F9604800F08DF9041C0B
:10046000664B186802F0B8FB011C201C02F053FB1D
:10047000071C5C4B1B68022BA5D00F2B79D0012BDE
:10048000A7D1574800F012F90023984696E75C4C34
:10049000236801332360514800F080F9011C381CA7
:1004A00002F043FB8221C90502F055FB554D02F0D5
:1004B000B5FB28602368082B08DC534B1B680B2B0B
:1004C00002DD514B00221A60002642E04E4A1368BA
:1004D00001331360424800F0AFF8494B00221A6024
:1004E000EBE74A4B1A68921B53425A41D2B2B3000F
:1004F0003B481818FFF7EEFE31E0394DB30058596C
:1005000000F099F8C2B2711CC9B20023280000F0B3
:10051000A3F801340B2C18DC3B4B1A680B239B1AF5
:10052000A3420BD1364B19680629E6DC0131B30032
:100530002B4818180122FFF7CDFEDEE728480023DC
:100540000022002100F088F8E3E7254800F07EF85B
:100550000136072E05DC2A4B19680729C1DD002466
:10056000D8E72A4B274A12681A60204B00221A60EB
:100570002FE7204B1B78002B16D01C4A1368013341
:100580001360234A126893420ADD224C206802F06D
:1005900023FB391C02F0C4FA02F040FB206018E78C
:1005A000164B00221A6014E7104B00221A60184BF9
:1005B0001968002907DB174B00221A60094B0E4A05
:1005C00012681A6005E74942124B186801F022FCD4
:1005D0000A4B1860F2E7C046AC1D0020F81D002051
:1005E000741D0020341F00200000C0424420002061
:1005F000A41D0020512000202C1E00203C200020A3
:10060000381D0020FC1D0020701D0020001E002051
:1006100048120020301E002010B504001F2100F0F9
:1006200069F900220021200000F07EF9002120005D
:1006300000F096F910BD7047002304E09A0082187C
:10064000002111600133072BF8DD7047D0231B0612
:10065000802292015A61704730B583B00500D020E6
:1006600000064068800404D5D02000068024A40140
:10067000846101A801704270002B0ED0002405E0B7
:10068000022201A9084810F0EBF801340B2CF7DD29
:100690002800FFF7DBFF03B030BD022201A90248AA
:1006A00010F0DEF8F7E7C0460000044070B5050022
:1006B000002600240AE03000FFF7BDFFC2B2611C33
:1006C000C9B201232800FFF7C7FF0134072CF2DD70
:1006D00070BD000010B504001C491D4804F074F8FA
:1006E00001210A2000F006F901210B2000F002F997
:1006F0000D2000F049F9D0231B06802292015A6296
:10070000012301220F212000FFF7A6FFFA2080001D
:1007100000F052FF012300220F212000FFF79CFF71
:10072000012301220C212000FFF796FF0123012263
:100730000A212000FFF790FF012307220B21200050
:10074000FFF78AFF2000FFF7B1FF10BD80969800E9
:100750000000044010B504F06DFA1A20FFF75CFFAA
:10076000034B1B68E022D2011340024A136010BD04
:1007700000C0044000D0044010B5064B04221A60AB
:10078000054B1B68DB05FBD5034B586880B202F0B4
:100790001EFA10BD00E0044000C004408B20C005DC
:1007A0007047000070B50100D02424068025AD02FA
:1007B000A5614822024810F053F8656170BDC0463B
:1007C00000C0034070B506000D1C0021281C02F07B
:1007D000F3F9002819D1FE218905281C02F0F2F94D
:1007E000002812D100240EE00849281C02F0B3F9B9
:1007F00002F046FAC0B2B16CA20020235B42034370
:100800008B540134A4B20F2CEED970BD0000F84116
:1008100010B504004822002102F00EFB231DA36442
:10082000FE2189052000FFF7CDFF1748174904F086
:10083000BFF90321042000F05DF80022012104200B
:1008400000F072F80321052000F054F80022012185
:10085000052000F069F88021C9030D4803F0B4FFBA
:100860000521112000F046F8D0231B0680229202B9
:100870005A625A610121122000F03CF80121132034
:1008800000F038F810BDC046E8120020801A0600BB
:1008900000C0034070B504AC24780F2909D8890042
:1008A000866C4D1C7455856C8C1C2B55836C0331E8
:1008B0005A5470BD70B584B00B226A44002616707D
:1008C0000B4C012300932021200004F09BF903AD81
:1008D000009602232A002021200004F09FF92878A6
:1008E0006B781B021843C04380B204B070BDC04691
:1008F000E812002010B58300084A9A1814684022B4
:10090000544080322240064CA44663441A60C00022
:10091000044B9C466044416010BDC04604C0014089
:1009200004D001400040014080000C4B9C466044D4
:1009300000290ED00823002A0DD004221343026898
:1009400053400C22134080225201944660440360BD
:1009500070470023EFE70022F0E7C04604C00140E3
:10096000002906D08000064B9C466044402303606B
:1009700070478000034B9C46604440230360F7E7C8
:1009800004E0014004F0014010B501238340D0226F
:100990001206936293610521FFF7ACFF10BD0000C2
:1009A0000FB400B583B0084803F045FD049B002B4D
:1009B00007D005A90191180003F04CFD034803F08E
:1009C0003AFD012003F062FB6009011040110110A3
:1009D000EFF3108072B6034B1B68002BFBD0BFF304
:1009E0005F8F70472C0100D0BFF35F8F024B002256
:1009F0001A6080F3108870472C0100D0F8B506000B
:100A00000C001500FFF7E4FFE308F718F15C07227C
:100A10002240012393400B4205D1DBB20B433B70D4
:100A2000FFF7E2FFF8BD21002800FFF7B9FF000043
:100A3000054A1078431CDBB21370172B02D9130040
:100A400010221A707047C0464C120020002307E0A5
:100A5000054A9A189200BFF35F8F0021116001339D
:100A60001F2BF5D97047C04640000034074B9B68E8
:100A7000103080001950BFF35F8FBFF35F8F044BBE
:100A80000021196082F310887047C04600ED00E035
:100A9000240100D00048704700E400E010B5FFF7E3
:100AA000F9FF002302E0034A04C00133072BFAD9FF
:100AB00010BDC0468080808010B50388DA0A1C2AE9
:100AC00005D15B055B1502335B00C01810BD034BFD
:100AD000034A8E210348490003F032FB70090110DC
:100AE000242201108809011010B5091A0B1F0A4AA7
:100AF00088180A4A904208D8C90706D45B105B05DB
:100B00005B0D0748184380B210BD064B064A87218B
:100B10000648490003F014FBFC070000FE0F00002C
:100B200000E0FFFFD0090110182201108809011010
:100B300010B5091A04394A08090B08D14905490DAD
:100B4000064B0B430380064B1343438010BD054BFC
:100B5000054A8B210548490003F0F2FA00F0FFFF37
:100B600000F8FFFF000A0110F421011088090110AC
:100B700001238340034A10681840431E9841C0B2C5
:100B80007047C04600E100E0002A05D0044BC022B7
:100B90005200995019607047014A8023D150FAE7FA
:100BA00000E100E010B50A001F2303400121994035
:100BB0004009FFF7E9FF10BD024B9B681030800031
:100BC000C058704700ED00E070B504000D00EFF371
:100BD000108672B60C4B1B68002BFBD0BFF35F8FE7
:100BE0002000FFF7E9FF094B984201D0A84205D148
:100BF000320029002000FFF739FF70BD044B054A81
:100C00000548ED2103F09CFA240100D0C101001039
:100C1000100A01103422011088090110F0B5CE46E7
:100C2000474680B583B006000D00EFF3108872B61A
:100C30004F4B1B68002BFBD0BFF35F8F4D4B9A6867
:100C400034001034A300D7584B4B9F4207D0AF421B
:100C500000D18AE00197494BFB1A2F2B09D9424654
:100C600039003000FFF702FF03B0C0BCB946B04600
:100C7000F0BD3000FFF77CFF814600213000FFF718
:100C800091FFBFF35F8FEFF30581002901D08C4204
:100C900011D10123019C9C430020A3689D4211D0E7
:100CA0000622A256002A0CDB53009B189B00334AF5
:100CB0002000D418F1E7324B324A3348334903F06D
:100CC0003FFA20009D4249D106256557002D2BDBB8
:100CD0002A4B6A00521992009B189A68A260DA792E
:100CE000E2719B795BB2A371002B0FDA2848A080D8
:100CF000224B6A00521992009B18264A117899716A
:100D0000157049463000FFF74DFFA8E7680040190D
:100D100080001A4BC0180430FFF7CEFE0100231DDF
:100D20001800FFF7E1FEE2E7002912D100280ED0FB
:100D3000FF238371184B838016490B78A3710F4AE8
:100D4000164BA41A644163431B0D0B70D9E70A4F7D
:100D5000F2E71349201DFFF7EBFED2E7114B094ADA
:100D600091210948890003F0EBF9034F77E7C0466A
:100D7000240100D000ED00E0C1010010501200205D
:100D8000480A011004220110880901100202000023
:100D900001BD00005220002001BDFFFFAAAA0000F3
:100DA0008A1200207C0A0110F8B5012202432C4B64
:100DB000D31A2F2B28D8EFF30583002B2AD0EFF37B
:100DC000108472B6274909680029FBD0BFF35F8FF2
:100DD000234D25490600761B76417143090D4DB21E
:100DE000224989689B00C958914219D000210329E2
:100DF00030D81B4B4A00521892009B189B795BB26B
:100E0000AB421DD00131F2E7194B1A4A1A481B496F
:100E100003F096F91A4B174A17481A4903F090F94C
:100E2000124A92681849D150184B1A7882711D7075
:100E3000BFF35F8F0B4B00221A6084F31088F8BD5C
:100E4000074B4A005618B6009E19FF27B771104A83
:100E5000B280E9E70F4B074A07480F4903F070F9E2
:100E600050120020240100D0AAAA000000ED00E0EA
:100E7000840A0110D8210110880901107F020000A6
:100E8000AC0A011082020000C101001052200020B3
:100E900001BDFFFFB80A011093020000024B9C46FF
:100EA00061448900016070474000003410B50400BF
:100EB000FFF7BEFD01002000FFF7F0FFFF232371C5
:100EC000BFF35F8F10BD10B50400FFF7B1FD010047
:100ED0002000FFF7E3FFFF23237100236371BFF3BB
:100EE0005F8F10BD10B50D4C09E00D4B0D4A0E483B
:100EF0001A2103F025F92000FFF7D8FF08340B4B27
:100F00009C4209D22368002BF5D0012BEDD12000A3
:100F1000FFF7D9FF0834F2E710BDC0466C18002077
:100F2000C00A011074220110E00A01107418002098
:100F300030B5846A151B0B1D9B001B581B1B9D4263
:100F400004D3046A01238B40234202D10431890077
:100F50000A5030BD00040843704700000A4B19686E
:100F6000EFF3108372B60A68002AFCD0BFF35F8FDC
:100F7000054A1268BFF35F8F0021116083F3108868
:100F800040BF00200021704740200020F0B5DE4621
:100F900057464E464546E0B587B0EFF3058303223A
:100FA0001A409246AE4B9200D7583B78534507D132
:100FB0000123524693409946AA4B4A461A6025E1BE
:100FC000A94BAA4AAA48922103F0BAF87A69730099
:100FD0009B19DB009046984443469C68DD68A54811
:100FE00000F0ACFB001BA941002900DA16E1002D3E
:100FF00074DB43461B699B469F4B9B454FD00823A0
:10100000F85E4346598889B2FFF7A4FF4346596901
:10101000D847029003910299039A0B0010001343E2
:101020005CD013000A00002847DAA41A9D410094FE
:1010300001954346009C019D9C60DD600021595E46
:10104000002900DAEAE078694B005B18DB00C3187E
:101050009A68DB68A41A9D41002D00DADEE0398130
:101060003D000835844604912A000597B346009E4A
:10107000019F049B002B2ADB0023D45E63001B1915
:10108000DB0063449C68DD6830003900001BA94127
:1010900000291CDB1A000021595E0491E9E7434650
:1010A0005B699B461B6958469847002816D05B46EB
:1010B0001A685B6802920393ADE76E4800F03EFB4E
:1010C000029B039C1B184C4100930194B1E70499C7
:1010D000059F5E464346198016809FE043460022E6
:1010E0009B5E3B813A69EFF3108372B61168002969
:1010F000FCD0BFF35F8F02217A5E41460A807E807A
:101100003A69BFF35F8F0021116083F3108885E097
:101110003969EFF3108372B60A68002AFCD0BFF376
:101120005F8FB88800B201225242BA803A69BFF399
:101130005F8F0021116083F310880500BC461CE01E
:10114000049300229A5E002A0EDB049B0021595E64
:101150004B005B18DB0063449868D96834003D009D
:10116000241A8D41002DEBDA04995D46009B9C46C4
:1011700044460D800023E55E2280002D12DB63468D
:1011800058696C006419E4000419A668E7686146B0
:10119000083108229A5EAB46049163460093A0464C
:1011A0008446D0E767463EE00023BB713900083132
:1011B0000823F85E0EE001246442E5179460D560D0
:1011C00008243B5F834204D00E8008243B5F1380D9
:1011D00038813000431C29D07C6943001B18DB0098
:1011E000E218E65E53881BB2002BE4DB1100F0E747
:1011F00022002B0051461F48FFF79AFE1D4800F0C1
:101200009DFA241A8D41002D22DC1FD0194B4A462D
:101210005A630823FE5E002E00DBD7E6BB881BB2B4
:10122000002B00DB74E7BB79002BBDD10823FA5EED
:10123000002A0DDB796953009B18DB00CB189C68F2
:10124000DD68631CD4D16B1CD8D0D1E7002CDDD075
:1012500040BF07B0F0BCBB46B246A946A046F0BDB1
:101260001C1E00203C700540740B0110A0220110D0
:10127000A00B0110004005408D0F001070B5040058
:101280000D0011000126AE4006622800FFF79CFC0D
:1012900001212800FFF786FC024B9C46644426602F
:1012A00070BDC04638200000F8B5CE46474680B530
:1012B0000600894690461F00C160FFF7B9FB154B39
:1012C0009C4660448000306143463370BBB27381FA
:1012D000D022120612787270012252423281B280FC
:1012E0009B187380002406E0621E736965002D1947
:1012F000ED005A530134BC42F6D3074B42469200EC
:10130000D650064A41464846FFF7B8FFC0BCB9462A
:10131000B046F8BD400000341C1E00208D0F0010A8
:1013200010B5064B1B69002B01D0044810BD044BBF
:10133000044A0548652102F003FFC04698120020C8
:10134000E00B011088220110A00B0110F8B5040079
:101350000569EFF3108072B629680029FCD0BFF34D
:101360005F8F0221665E656971008919C9006D1879
:10137000002E02DB0027E95F61802169BFF35F8FE8
:1013800000270F6080F31088002E2CDB069929615E
:1013900007996961AA60EB606B8801335B04590CA3
:1013A000002B00D1012169803000FFF7D3FD2169B6
:1013B000EFF3108372B60A68002AFCD0BFF35F8F88
:1013C000A2882A80A6802269BFF35F8F0021116066
:1013D00083F31088E368217801228A4003498C4610
:1013E00063441A60F8BD01204042FBE73C20000046
:1013F00070B582B0060014001D0008AB1B78002BEE
:1014000007D100F0CDF922002B00121A8B41002BDE
:101410000ADB079B0193069B009322002B00300000
:10142000FFF794FF02B070BD0020FBE7F0B5C646A1
:1014300000B584B00500884616001F000AAB1C7872
:10144000FFF76EFF0294019700962A004346FFF7CC
:10145000CFFF04B080BCB846F0BD000030B504003A
:101460000A1443899A422EDA406953009B18DB0024
:10147000C3182569EFF3108272B628680028FCD0E3
:10148000BFF35F8F588885B20904090C884212D0D7
:1014900000202369BFF35F8F0021196082F3108859
:1014A000002811D0E368217801228A4007498C4640
:1014B00063441A6008E00649294389B25980012330
:1014C000A3710120E5E7002030BDC0463C200000AC
:1014D0000080FFFF10B50400FFF722FF2100FFF797
:1014E000BDFF10BDF0B583B006000F00EFF305831C
:1014F000002B1AD106246442E517A4197D418D42C0
:1015000002D803D1844201D90024002500F048F913
:1015100022002B00121A8B41002B0BDC08D030006C
:10152000390000F04FF903B0F0BD1648FFF738FA64
:10153000002AF4D0144A0023009320002900FFF76A
:1015400075FF002813DAEAE7104B1968EFF31083F0
:1015500072B60A68002AFCD0BFF35F8F0B4A12688C
:10156000BFF35F8F0021116083F3108820BF084B09
:101570005B6A9D42E8D80649896AA142CFD29D4262
:10158000CDD1E1E7040C01105D0F001040200020D8
:101590000040054070B504000D0000F001F900198D
:1015A0006941002902DBFFF79DFF70BD0120404229
:1015B0000049F8E7FFFFFF7F10B5FA2292000023F1
:1015C000002101F08BFAFFF7E5FF10BDF0B5CE4624
:1015D000474680B583B005000C00EFF30583002B70
:1015E00015D03F4B5B6A8B4209D33D4A926A8242D7
:1015F0000BD28B4201D0012002E0002000E000204D
:1016000003B0C0BCB946B046F0BD0120F8E7FFF713
:1016100087FEC3689946037898462E0027004846FF
:1016200000F08CF802000B00B61A9F4143460433C9
:101630009B004A469B581B1A0022BA420FDC0CD072
:1016400020BF274B5B6A9C422DD8254A926AAA424A
:101650002BD29C4225D00120D2E7B342F0D9214AB7
:101660000023009328002100FFF7E0FE00281EDD84
:101670001B4B5B6A9C4205D8194A926AAA4202D265
:101680009C4200D120BFFFF725FF154B5B6A9C42AF
:1016900021D8134A926AAA421FD29C4219D0012033
:1016A000AEE70020ACE70020AAE70120A8E70C4B3A
:1016B0005B6A9C4209D80A4A926AAA4207D29C42B3
:1016C00001D001209CE700209AE7002098E7012044
:1016D00096E7002094E7002092E7012090E7C046BB
:1016E000004005405D0F0010004870470040054075
:1016F00010B50B4B1B69002B04D00A480A21FFF7D9
:10170000CDFB10BDFFF7F0FF0400032100F00CF843
:101710000348102303222100FFF7C6FDEDE7C04672
:10172000981200204020002010B5024A0248FFF71E
:1017300065F910BD540C0110441D00200200436ADD
:10174000906A1900536A9942FAD17047416A00E0E1
:10175000416A9942FCD300E0416A994202D1816A10
:101760009142F9D37047F0B5C64600B580461400E3
:101770001D00FFF7E3FF06000F0022002B00921967
:101780007B41994202D804D1904202D901225242AF
:10179000D3174046FFF7DAFF80BCB846F0BD000023
:1017A00010B50248FFF7CAFF10BDC0460040054013
:1017B00010B502000B000248FFF7D5FF10BDC04670
:1017C0000040054010B502000B000248FFF7BEFFC5
:1017D00010BDC04600400540074B98420AD0162372
:1017E00001229A40054B1A60054B1B681100994372
:1017F000FAD170471723F3E70080034000F0004060
:1018000008C0004070B5046BE30701D4200070BD30
:101810000B4BC3180B4A1A60456A836AAD01ED1879
:10182000AD02062000F016F9074900F01BFB01008D
:10183000280000F017FB0021FFF7BAFFE6E7C046DB
:1018400030300000010300004E0E000070B50400AF
:101850000E001500FFF7D6FFE36A5E403540024BED
:10186000E3181D60206370BD2C10000070B50500EA
:101870000C00062000F0EEF8C000210000F0F2FAA3
:101880000130C60907D00E4B9E4215D840083400DF
:101890003F26064000E001246C62AE620022002177
:1018A0002800FFF7D3FF062000F0D4F88000A10144
:1018B000891900F0D7FA70BD0026024CECE7C0464B
:1018C000FEFF0000FFFF0000002909D00A22064B9E
:1018D0009C46604443425841044B4000C25270470A
:1018E00080225200F3E7C0460080FCBF4820002061
:1018F00070B504000D00062000F0ACF800281ED0E2
:10190000104B9C421CD01622012393400E4A1360B8
:101910002000FFF761FF00212000FFF7D5FF29001D
:101920002000FFF7A3FFE26A70235A400E331340F2
:10193000064AA2181360064B23630323A36470BDF9
:101940001722E1E70080034000E000402C10000077
:1019500001030000F8B5D646474680B506000D00E5
:101960001700984644002418A400294B9C46644460
:101970006368089A934200D26260331FDBB29A46D2
:10198000012B2ED980221201C0239B01E3181A607B
:10199000204BB200D158002907D0586900F062FAF4
:1019A000013043001B18033BFDD27F0123685F40D9
:1019B000E0233B4080225201A21813605346012BC2
:1019C0001AD980239B01E318802212011A60089B18
:1019D0006360104BB6004246F250C0BCBA46B046F7
:1019E000F8BD012DCED10322C0239B01E3181A605C
:1019F000A368DB07FCD5D8E72168694003230B40C7
:101A00001360A3680122AA401A42FAD0D9E7C0465F
:101A100000800040481D0020F0B583B005000E0096
:101A200017001800089900F01DFA0300089A140224
:101A300000943A0031002800FFF78CFF03B0F0BD9E
:101A400010B582B0802464000094FFF783FF02B0D9
:101A500010BD0000014B8000C0587047481D002099
:101A6000F0B5C64600B504000E0017001D0037484B
:101A700000F0F8F98046364BFA18364B9A4239D8BE
:101A80000100380000F0EEF90200103A98235B00E4
:101A90009A4235D86B1E062B38D8069B013B062B85
:101AA00034D83F09474537D32D04069B1B031D43FC
:101AB0002368002B36DB284B9C4244D00C220123A8
:101AC0009340264A1360264A1360264A126819007A
:101AD00091430A1EF9D12660A060234BE3182132FE
:101AE0001A602268002AFCDAE56008221A6080BCCD
:101AF000B846F0BD1D4B1E4A1E48112102F020FBC6
:101B00001D4B1B4A1B48192102F01AFB1B4B184A9C
:101B100018481C2102F014FB194B154A15482321C3
:101B200002F00EFB22683F231340B342C3D1A368E7
:101B30001B051B0D8342BED1E368EE22D202134087
:101B4000AB42B8D1D3E70D22B9E7C046001BB700BE
:101B500080E84BD380F8A93200C0024000E000408A
:101B600000F0004008C0004004300000780C011074
:101B7000C0220110C80C0110100D01102C0D011015
:101B8000780D011080239B000B43014AD3627047FC
:101B90000080054010B5010018231B88142210880E
:101BA000984710BD10B5010018231B881622108815
:101BB000984710BDF0B5C64600B507000E000025D9
:101BC0000123984600E00135B5420AD2AC003C1929
:101BD0002068FFF7DFFF20600028F4D1002398463B
:101BE000F1E7404680BCB846F0BD0000074BAA2292
:101BF00012011A608D225200DA60054B054A1A6004
:101C0000024B5B68002BFBDA7047C0460040024085
:101C10000060024000B0FA0010B5040001E008CCFA
:101C20009847024B9C42FAD310BDC0460C090110E4
:101C30007047000010B50248FFF7EEFF10BDC04628
:101C4000D0080110054B064A1A60064B064A1A6076
:101C5000064B1A68044B9343FAD1704700E00040EA
:101C6000BFCDFBFE00F00040FE7F3C0008C00040FE
:101C7000044BDB6C002B03D1034B8022D2021A6091
:101C80007047C046000011504C201150044B054ACB
:101C90001A60054B1B68DB43DB01FAD17047C04675
:101CA00000F00040FFFFFF0108C00040034B40224E
:101CB0009A675A671A67DA667047C04600F00140B3
:101CC00010B5FEF7C3FE10BD10B50C4A0C4BD21A6E
:101CD00092101400302A00D9302292000948084995
:101CE00001F0B0F804E0084A064BA100CA500134E4
:101CF0002F2CF8D9034B054A936010BDC00100108A
:101D00000001001000000020C101001000ED00E003
:101D100070B50420FFF79EFE064900F0A3F8050009
:101D20000024002C00DD70BDE0B22900FFF72AFF7F
:101D30000134F6E740420F0030B583B0274B002254
:101D40009A67FFF753FF264B01221A60234B5B6C07
:101D5000012BFBD1234B03221A60204B9B6B012BE1
:101D6000FBD10133009304331F4A01211F48FFF7C1
:101D700077FE052300931E4A01211E48FFF770FEDF
:101D80001D4B002202210420FFF75AFE1B4D2B00A1
:101D9000002201210520FFF753FE194C23000022E9
:101DA00000210720FFF74CFE23000022002108201D
:101DB000FFF746FE8023DB00009323000022002172
:101DC0000920FFF729FE2B00002200210620FFF743
:101DD00037FEFFF79DFF03B030BDC04600800040D6
:101DE0003CB0004030B00040002F685900800240F5
:101DF000008C864700C00240001BB70040597307A3
:101E0000006CDC0201480421014B1847B01200208D
:101E1000B51B0010124A936F9B0815D29066D166CD
:101E2000002905D0FFE7FFE7FFE7516F106F70470C
:101E300004B580210906C2175140002800D0C843CC
:101E40000EF0F6FC002104BDF0B5146E556E576F10
:101E5000166FFFF7E3FF1466556657671667F0BD08
:101E6000000000D0114A936F9B0813D21066516690
:101E7000002905D0FFE7FFE7FFE7516F106F7047BC
:101E800004B5002801D00020C0430EF0D1FC002191
:101E900004BDC046F0B5146E556E576F166FFFF750
:101EA000E5FF1466556657671667F0BD000000D061
:101EB00094464A4A926F9208624601D228E0C04690
:101EC000F0B5464E346E756E776F366F00F020F8C1
:101ED0009446424A14665566576716676246F0BDD7
:101EE00094463E4A926F9208624601D254E0C04640
:101EF000F0B53A4E346E756E776F366F00F04CF871
:101F00009446364A14665566576716676246F0BDB2
:101F1000002B24DB11D000293EDA00B5C943404232
:101F200000D1013100F038F8C943404200D10131FD
:101F3000DB43524200D1013300BD002AEBD100281F
:101F400001D1002905D00020C90FC90701D1C04324
:101F5000410800B50EF044FC0022002300BD00B58E
:101F600000290ADBDB43524200D1013300F014F8B0
:101F7000C943404200D1013100BDC943404200D1B4
:101F80000131DB43524200D1013300F005F8DB435D
:101F9000524200D1013300BD002923D1002B18D1BA
:101FA000002A0CD0BC460D4F38667A66002100230B
:101FB000FFE7FFE7FFE77A6F386F67467047002853
:101FC00001D00748010000B50EF00AFC00220023F2
:101FD00000BD02000B00002000217047000000D06F
:101FE000FFFFFFFF002B00D0BFE0130C28D1002A19
:101FF000E7D080B4114F39667A66FFE7FFE730B467
:10200000040C7B6F396F1B0423433B667A66FFE742
:10201000FFE7FFE7C04684B27B6F3D6F1B0423439D
:102020003B667A66FFE7FFE7C04600232C042D0CD1
:102030007A6F386F00196941B0BC7047000000D05A
:10204000F0B594460025140E01D112020835140F84
:1020500001D112010435940F01D192000235D40F41
:1020600001D152000135D40B0134254F7C66254C3B
:102070003C660E0C93B2FFE7FFE7FFE73C6F664359
:10208000360C7703BE467343DF0B5B04C01AB941BD
:10209000130C7343DB18C91ACE086643360CB644DA
:1020A00093B273431F0F1B01C01AB941130C734342
:1020B0001F0B1B05C01AB941860D8F023E436643B4
:1020C000360C092D24DB520A7243801A7703460A24
:1020D0006643360C16235B1BDE40DF40BF196446A7
:1020E0006643821B7046043506330100D940A84080
:1020F000C01900D30131A24206D20023F0BD000076
:10210000000000D0FFFFFFFF121B0130F3D3F1E707
:1021100009277F1BFE406446A2B27243801A00D298
:102120000139220C7243130C1204821A99410B00DC
:102130007046043513370100F940A840801900D3D8
:102140000131002B02D1A2420AD2F0BD013000D3EE
:102150000131121BFAD2013BF8D1A24200D2F0BDEC
:10216000013000D30131121BF7E7F0B51C0C00D091
:1021700080E00CB400251C0A04D11B02160E334368
:10218000120208351C0B04D11B01160F3343120138
:1021900004359C0B04D19B00960F3343920002350B
:1021A000DC0B02D192185B4101351C009718644189
:1021B0000134464F7C66464C3C660E0CFFE7FFE759
:1021C000FFE7C0463C6F6643360C7703BE4697B2C6
:1021D0007743C01B00D20139C01B00D201399FB226
:1021E0007743C91BC91B170C77437E04FF0B801B69
:1021F000B941CE086643360C0C2D33DBB644120BC6
:102200001F053A431B0B97B27743C01B00D201391D
:102210009FB27743C91B170C77433E043F0C801BCA
:10222000B941860D8F023E43664329277F1BFE403E
:102230000C3D7746AF40BF1930BCA2B2ABB272437F
:102240007343801A9941220C7243130C1204801AB2
:10225000994102000B000137001BA941F9D2781EF9
:102260000021F0BD0C277F1BFE4077467F0BAF405F
:10227000FF19E0E700245D1C07D0144F7D66396626
:10228000FFE7FFE7FFE7FFE73C6F95B29EB26543CC
:102290006643401BB141150C1E0C65436643360472
:1022A0002F0C3E432D04401BB141994204D2020041
:1022B0000B0020000021F0BD01D19042F7D3801A1D
:1022C000994101349942F2D3F6E70000000000D0B2
:1022D000FFFFFFFF48404140484018B41B4B5B687C
:1022E000FC46019308BD04DFAF25001018B4174B5E
:1022F0001B68FC46019308BD00DFB9250010944619
:10230000134A926F920809D2624618B40F4BDB68E9
:10231000FC46019308BD0CDF712800100C4AF0B593
:10232000146E556E576F166F6246FFF7EEFF084A40
:102330001466556657671667F0BD18B4034B9B6863
:10234000FC46019308BD08DF15270010341E00204D
:10235000000000D0FFB550404240504059404B4033
:10236000594000E0FFB5154F4C00640D03D0BC424E
:1023700004D10C0314D80020090D09055C00640D7C
:1023800003D0BC4204D11C030AD800221B0D1B053C
:1023900001264B4009D44B4003D58B4200D18242E9
:1023A000FFBD9942FCD19042FFBD0B43DB180343B4
:1023B0001343F5D0C9434918FFBD0000FF070000D3
:1023C00000B5FFF7CFFF804100BDC04600B5FFF765
:1023D000C9FF01D9002000BD012000BD00B5FFF7F5
:1023E000B9FF01D9002000BD012000BD00B5FFF7F5
:1023F000B1FF804100BD012040054A00121804D8F9
:102400005A00121801D800207047012070470000C0
:102410000021002805D17047C1174840401AFAD062
:10242000C90713B5064B1B6898470CBC441CA24057
:102430001005120B0349091B09051943114310BD6F
:10244000381F00201F04000010B54C00620D8023CF
:10245000D218DB00D21A5B057E2A10DD9E3A13DA11
:10246000CC170903490819435242D1406400013492
:102470001532202A05DAD0400843604310BD002001
:1024800010BD0846604310BDC80FC018013810BD0C
:1024900018B4044B5B6AFC46019308BD24DF212A73
:1024A00000100000341E002070B513231C78012C8E
:1024B00012D0012C12DC214B214A93642148FFF7F2
:1024C00069FB214B186070BD1C491D4A9800815062
:1024D00001331F2BF8D9ECE70023FAE71B48FFF77D
:1024E00061FB05001A48FFF75DFB023803789B008B
:1024F0007F2B09DD12488022290000F0A3FC022C6A
:1025000008D0022CDADCD6E7124B134A13483321E9
:1025100001F016FE124B1A88B5231B029A4209D10C
:10252000104B1A88104B9A4204D1104B1A88104B4A
:102530009A42E6D00020FEF733FAC0467525001017
:10254000341E00204C330000381F0020534400008C
:1025500053460000940D0110CC220110D80D01103B
:1025600054380000D8380000494600009C3800006C
:102570005946000007B56046002800D100BE01881A
:102580000A0A0230DF2AFAD1C9B2820804D30288CB
:1025900040880004104300E00068024A5050039055
:1025A00007BD0000341E00200FB403BC0CBCF0B506
:1025B0000124E407634000E0F0B50C0DCF0F661E68
:1025C0003605891B640503D3C943404200D301315A
:1025D000640D03D0661CF60A07D0E41B00207F00C0
:1025E000791C89078912803C24031D0DDF0F6E1EA4
:1025F00036059B1B6D0503D3DB43524200D30133E9
:102600006D0D03D06E1CF60A07D0ED1B00227F0073
:102610007B1C9B079B12803D2D032F1B661B58D4F0
:10262000A446202E46DA20371400BC401D00BD40D1
:10263000F24033412A4380185941CB0F05D0C9439A
:10264000C043002264425041514162464D0D28D1A1
:102650000D0D07D100281FD0241940414941013AEE
:102660000D0DF9D0640006D3013000D30131002CE8
:1026700001D140084000013A0BD4941CE40A04D173
:1026800012051144DB071944F0BDD907204B19434B
:1026900000E0D9070020F0BD0029DDD1002CDBD1FE
:1026A000F0BD0132C6074008CD0728434908002E77
:1026B000E1D0D9E73C2E29DA203E40371400BC4057
:1026C00000D00124F24014431A00BB401C43D3172E
:1026D000ACE7AC46202F08DA20360400B4400D00E9
:1026E000B540F84039412843A5E73C2F0CDA203F9C
:1026F00040360400B44000D00124F84004430800F0
:10270000B1400C43C117EAE710001900002494E718
:102710000000F07FF0B50C0D661E3605891BE60A39
:102720006405640D02D0651CED0A04D0002001216F
:102730000905803C2403A4461C0D671E3F05DB1BD6
:10274000E70A6405640D02D0651CED0A04D000227E
:1027500001231B05803C24037740644497B484B272
:1027600096B27443070C7E43150C6F4380B26843E6
:10277000361802D3012000043F183004350C00192C
:102780007D41844688B29AB250430C0C62431F0CC0
:102790007C438EB27E43921902D301263604A419DB
:1027A0001604170C3618674101BC81B29AB2514326
:1027B000040C62431B0C5C4380B25843121802D3D2
:1027C0000120000424181004130C401863412D1834
:1027D0005E410020474106BC88B293B258430C0CBE
:1027E0006343120C544389B251435B1802D3012155
:1027F0000904641819041A0C091862416D1856412D
:102800000020474118BCF902720D1143F0026A0D15
:102810001043ED020A0D03D16D1940414941013BBE
:10282000124E9B1B7600B3420ED26D0007D30130CF
:10283000002671416646354301D1400840001B0522
:10284000C918E4072144F0BD0BDA013306D1013089
:1028500004D101314F0D01D04908F2E7E107002012
:10286000F0BD013631050020EBE70000FF0300005A
:10287000F0B51C0D671E3F05DB1BE70A6405640D00
:1028800002D0661CF60A04D0002201231B05803CFE
:102890002403D0252D060026F6432E661E096E66FB
:1028A000CE0FF619B44649004F0D02D07E1CF60A31
:1028B00003D000200021403F3F033E1BB600B4443C
:1028C000013F7F05C91B49082E6F013676089C021F
:1028D000950D25437543ED137543AD1301356D100B
:1028E000F603761B0CB4CC02450D2C43A2B2B3B256
:1028F0005A43270C7B43350C6F43A4B26C431B191E
:1029000002D3012424043F191C041D0CA4187D418A
:1029100024196D41009A91B2ACB26143170C7C430B
:102920002B0C5F4392B25A43A41802D30122120423
:10293000BF182204230C52187B41019C6C431B19C5
:10294000520ED9010A434401A01A81B2B2B25143D6
:1029500003145A43360C734387B27743D617D21900
:1029600000277E4136049B191704160C7F185E4120
:102970007316ED18F301002680337541A90F06D1B7
:102980006400690AE8055B0A184309D22FE00422B3
:10299000944480337541A90AA8059B0A184326D39D
:1029A000404149412404009A019B0D005543641B9A
:1029B0004343E41A95B286B27543170C7E43030C69
:1029C0005F4392B25A43B61802D301221204BF18D1
:1029D0003204330C52197B4152429C41002C02D4E8
:1029E0000022013051414008CA071043490802B093
:1029F0006246D7079210084BD218084B9A4203D26E
:102A000012058918C919F0BD0020002A01DC39001F
:102A1000F0BD01331905F5E7FD030000FE070000D6
:102A2000002200B5203200F004F8080000BD0000CC
:102A300000220B150AD410B5944600F031F8141496
:102A4000013400DA0021CB17144C2047002000216C
:102A500070476244343A0CD40C2A07DA04009140DF
:102A6000904052422032D440214310BDD843D94334
:102A700010BD203207D40C469440524220321141FE
:102A8000D040204310BD0800C917203203D4524261
:102A90002032104110BD1800190010BD532A00103B
:102AA0000A0DCC0F531E1B05C91A520503D3C94387
:102AB000404200D30131520D03D0531CDB0A07D032
:102AC000121B00206400611C89078912803A1203DE
:102AD000014BD21A70470000FF03000051434343EB
:102AE000C9188C46110C83B24B4310B4040C6143DB
:102AF00092B280B2504362431C041B0C001910BCFC
:102B000059411304120CC018514161447047000030
:102B100048404140484000239C46114B5B681847A1
:102B200000239C460E4B1B6818470E4A936F9B0868
:102B300004D200239C460A4BDB681847F0B5146E9C
:102B4000556E576F166FFFF7F4FF064A1466556609
:102B500057671667F0BD00239C46014B9B681847DA
:102B60003C1F0020000000D007B5484041404840CD
:102B700001E0C04607B54200120E03D0FF2A03D180
:102B8000420218D8C00DC0054A00120E03D0FF2A19
:102B900003D14A020FD8C90DC9050122414005D40D
:102BA000414001D5814207BD884207BD0143491814
:102BB00001D0C043001807BD00B5FFF7DBFF80411F
:102BC00000BDC04600B5FFF7CFFF804100BD491AE8
:102BD000002807D108467047C10FC90700D54042F9
:102BE000002817D0F44603B40B4B1B68984706BC6B
:102BF00081409E384042803107D20B0607D0490001
:102C0000490AC0051043084360470130F8E7490A04
:102C10008902F5E770470000381F002041000A0EC6
:102C200080231B067E2A0BDD9E3A0BDAC117400279
:102C3000400818435242D040490001314843704790
:102C400000207047C00FC01801387047C0420DD334
:102C500000B540004008002100F012F8002801D41F
:102C6000404200BD8020000600BD0000034BDB6930
:102C7000FC4618471CDFC12D001000003C1F00203F
:102C800000239C46014B5B6A184700003C1F002054
:102C900070B513231E782A48FEF784FF0500012E25
:102CA00011D0012E09DDAB1E1B789B007F2B40DD70
:102CB00024488022290000F0C5F82348FEF76AFF67
:102CC000224B186070BD1F485422290000F0BAF84A
:102CD0001F4B1A881F4B9A421CD1A7239B011A88AD
:102CE0001D4B9A4216D11D4B1A881D4B9A4211D189
:102CF0001C4B1A8894239B019A420BD11A4B1A88B9
:102D00001A4B9A4206D11A4B1A681A4B9A4201D1B1
:102D1000152307E01848FDF743FE184C094A9900AF
:102D20008C5001331F2BF8D9144B064A1362D36120
:102D3000B7E7134B134A1448422101F001FAC04689
:102D4000534600003C1F00204C330000381F002079
:102D5000EE290000C40F0000C20D0000962B0000F9
:102D6000C0B50000182B0000CC2A000010B50000F0
:102D7000FC2C000051ED87645C1001108D2D0010BB
:102D8000300E0110E0220110640E011007B56046FC
:102D9000002800D100BE01880A0A0230DF2AFAD1D9
:102DA000C9B2820804D3028840880004104300E0BE
:102DB0000068024A5050039007BD00003C1F0020ED
:102DC0000021C2158032803201D0024A1047002013
:102DD00070470000CD2A000010B5002804D040182C
:102DE000034B984200D810BD0248FDF7D9FDC046FC
:102DF00000000420BC0E011070B505000BF09CFA19
:102E000004002900FFF7E8FF200070BD70B50D0039
:102E10000BF09CFD04002900FFF7DEFF200070BDD1
:102E200010B50BF093FA10BD01480421014B18476F
:102E3000C0120020B51B0010014B1B681847000092
:102E4000C0120020014B5B6818470000C012002030
:102E500010B5FFF7D1FF10BD10B5FFF7E1FF10BDB2
:102E600010B5FFF7DDFF10BD9A4200D288547047BD
:102E7000704710B5002802D00B684968984710BD0C
:102E80000100002007E083001B185B00501C086055
:102E90001078C01830380A681378303BDBB2092B41
:102EA000F1D97047F0B5DE4657464E464546E0B587
:102EB00083B093461F000C9B9A460D9C0E9B99462F
:102EC0000F9B9B0717D0B8460F00060022E0551C49
:102ED0004B4641462020B84701342A00B442F6D37D
:102EE0003D004F465C46019B9B46B1464646B84670
:102EF00037002E000EE00192A34688464E46B946A2
:102F00000700EBE7013C551C5346185D434639006A
:102F1000B0472A00002CF5D135003E0047460F9BF4
:102F20009B0711D4100003B0F0BCBB46B246A946C3
:102F3000A046F0BD541C4B4641462020B847220015
:102F4000531BB342F6D3EDE7B0464E46B9462F00C9
:102F50005D46F5E7F0B5CE46474680B585B0944668
:102F600098460C9D0D9C0EAB1B789946109A119BB0
:102F7000129EB7071CD4002B0CD0F7070AD54F467A
:102F8000002F02D10C37374204D0013B02E030273A
:102F90002F550134944201D21F2CF8D9F70707D5D9
:102FA0009C4205D21F2C03D830272F550134F5E75A
:102FB000F70612D5770505D4002C03D0944221D012
:102FC0009C421FD00F9A102A2FD00F9A022A36D077
:102FD0001F2C0AD830222A5501341F2C05D84A4606
:102FE000002A32D02D222A550134039602930194EF
:102FF000009543466246FFF755FF05B0C0BCB94691
:10300000B046F0BD621E012C17D00F9F102F0BD0C1
:1030100014000F9A102AD8D1B206D6D51F2CD4D8B6
:1030200058222A550134D3E7023CB206F1D41F2CB2
:10303000EFD878222A550134CAE71400C2E71F2CC2
:10304000D3D860322A550134C2E7720703D52B2248
:103050002A550134C9E73207C7D520222A55013441
:10306000C3E7F0B5DE4657464E464546E0B593B059
:1030700081468A46089209931CAB10CB1B789B466D
:103080001E9D219B9846002C03D1102342469A4353
:1030900090468023DB0046461E4042461A4218D026
:1030A000002C22D0002614E0424692061BD5412176
:1030B000C918C9B20A39C9B2771C0AAB9955290097
:1030C0002000FEF7CFFEAC4210D31F2F0ED83E00DB
:1030D000040029002000FEF7C5FECBB2092BE3D87F
:1030E0003033D9B2E8E76121E2E72700434606938F
:1030F000209B05931F9B049303955B4602930197C6
:103100000AAB0093099B089A51464846FFF722FFF5
:1031100013B0F0BCBB46B246A946A046F0BDF0B520
:10312000DE4657464E464546E0B597B00A900B91AD
:103130000C929A46209B9946219F22AA13789B467F
:10314000249B0993259C289B98464A463A4302D1E2
:103150001032934398468022D2004546154043469C
:1031600013420AD04A463A4341D000252E00534626
:103170000D934D46099B9A4621E02E0053460D9330
:103180004D46099B9A461AE04246920623D54122B3
:10319000D218D2B20A3AD2B2731C99460EAB9A55E3
:1031A0005246230028003900FEF79AFEBC4220D880
:1031B00013D04B461F2B16D84E4605000F00524623
:1031C000230028003900FEF78BFED3B2092BDBD891
:1031D0003033DAB2E0E76122DAE7AA45E9D94E46B0
:1031E0000D9B9A4608E04E460D9B9A4604E0002649
:1031F00002E04E460D9B9A4643460693279B059355
:10320000269B0493099B03935B46029301960EABA6
:10321000009353460C9A0B990A98FFF79BFE17B040
:10322000F0BCBB46B246A946A046F0BDF0B5DE46AE
:1032300057464E464546E0B591B0804689460C92C9
:103240009A461A9C1B9D22002B0020002900FFF7A4
:10325000D2F8002800D0F2E001225242D54B2000E3
:103260002900FFF7C3F8002800D0E8E0012252420D
:10327000D14B20002900FFF7A3F8002800D0DEE0A2
:103280000022002320002900FFF79AF8002800D030
:10329000EAE0069407958023DB001E9A1A400D92FF
:1032A0001E9A1A4201D106231C9306980799020020
:1032B0000B000892099303000A00024300D1DFE0EB
:1032C000080D4005400DBD4EB4466044079E3203D4
:1032D000120B1E00BA4B13431F00FFF79DF8B94AAB
:1032E000B94BFFF72AF8B94AB94BFEF7FFFF089030
:1032F00009910022B74B30003900FEF7EEFFB64AC5
:10330000B64BFFF71AF802000B0008980999FEF770
:10331000EDFFFFF799F88346FFF77EF806000F00F0
:10332000AF4AB04BFFF709F80022AF4BFEF7DEFFC4
:10333000FFF78AF80890AD4AAD4B30003900FEF730
:10334000FCFF06000F000898FFF766F8A94AAA4B91
:10335000FEF7F3FF02000B0030003900FEF7BDFF5F
:1033600006000F0002000B00FEF7E7FF0A900B912A
:10337000089BA24A944663440021002208910992C6
:103380001B0509930023089332003B0030003900ED
:10339000FEF7ACFF0E900F9132003B000020802121
:1033A000C905FEF79AFF06000F000022944B0A9809
:1033B0000B99FEF7A4FF0022924BFEF797FF020045
:1033C0000B000A980B99FEF79AFF00228E4BFEF72E
:1033D0008DFF02000B000A980B99FEF790FF020088
:1033E0000B0030003900FEF781FF02000B000E9841
:1033F0000F99FEF784FF0022714BFEF777FF089AC2
:10340000099BFEF79AFF06000F0008960997069A97
:10341000079BFEF7EBFF00280BD001235B429C4685
:10342000E3440022774B30003900FEF768FF089034
:1034300009915B466333C62B45D8042623E01E9BC7
:1034400004931D9B03931C9B029300940195534688
:103450000C9A4946404600F0FBF811B0F0BCBB4660
:10346000B246A946A046F0BD00210022069107926F
:10347000069480231B069C46AC44634607930AE7E8
:1034800000239B4604261E9B1B0528D5089A099BF2
:10349000190011430FD05D4A5D4B06980799FEF75E
:1034A0009DFF00287AD000225A4B06980799FEF714
:1034B00087FF002872D01C9B5B4506DD5A469B1A8D
:1034C000013B1C9303E00526DDE700231C938023CA
:1034D000DB001E9A1A431E92002600239B461D9B6A
:1034E0009E4265D29F1B02231E9A1A400A921E9A80
:1034F000134202D0002E00D000275B46002B07D0DD
:10350000089A099B06980799FEF7F9FE069007911D
:103510000022002320002900FEF752FF002800D0DF
:103520007CE03D4B1E9A1340049303971C9B02932F
:10353000069B079C0093019453460C9A49464046CB
:1035400000F086F8002E00D187E71E9B9B0671D500
:103550004525441C5346020049462800C0475A46A8
:10356000D317D2185A4005230593013E0496002331
:1035700003930A3302935B46DB0F01930092534699
:10358000220049464046FFF76CFD0A9B002B00D104
:1035900063E7020047460C9E1D9D53E01C9B002BD9
:1035A0009DD00D9B002B9AD01C9B013B1C9396E752
:1035B000002798E7FFFFEF7FFFFFEFFF01FCFFFF12
:1035C0000000F03FFB799F501344D33FB3C8608B9A
:1035D000288AC63F0000F83F61436F63A787D23F48
:1035E00071A379094F930A400000E03F1655B5BB1F
:1035F000B16B0240EF39FAFE422EE63FFF030000B6
:1036000000002C4000002440000018402D431CEB1B
:10361000E2361A3F80842E41FFF7FFFF069C079D8C
:103620002200290080200006844661440B00069297
:10363000079376E765258CE7541C534649462020BE
:10364000B8472200931BAB42F6D3100005E7C046F3
:10365000F0B5DE4657464E464546E0B595B0069075
:10366000079193469946209F1E9A1F9B10001900B0
:10367000FEF7C1FE002831D101225242BC4B1E98F8
:103680001F99FEF79DFE002837D101225242B94B07
:103690001E981F99FEF7AAFE00283DD10022B64BC6
:1036A0001E981F99FEF7A2FE00284AD10022B34BB4
:1036B0001E981F99FEF784FE002842D100220023A5
:1036C0001E981F99FEF77CFE00284AD100239846D9
:1036D000229B5B0500D4B0E0002452E0229B0393C0
:1036E000219B029303230193A54B00934B465A461B
:1036F00007990698FFF7D6FB08E1229B0393219BCD
:103700000293042301939F4B00934B465A4607991B
:103710000698FFF7C7FBF9E0229B5B070ED59A4B93
:1037200004222299039121990291019200934B4620
:103730005A4607990698FFF7B5FBE7E0934B03223B
:10374000EFE7229B0493219B039302971E9B1F9CF0
:10375000009301944B465A4607990698FFF766FD79
:10376000D4E01E9A1F9B00200021FEF7B6FD1E909C
:103770001F9101239846ABE70CAB30221A55013F4D
:1037800001341F2C01D8092FF6D81E981F99FEF777
:103790005BFE0500FEF740FE02000B001E981F991D
:1037A000FEF79BFD7A4BFA009B181A685B680A9239
:1037B0000B93FEF7C2FD08900991FEF769FE060023
:1037C000FEF726FE02000B0008980999FEF785FD1A
:1037D0000890099100226F4BFEF708FE00282ED0BA
:1037E00001363000FEF714FE02000B000A980B9918
:1037F000FEF7ECFD002801D001350026002F2CD16A
:103800002800FEF709FE02000B001E981F99FEF724
:1038100064FD06000F0000225E4BFEF7D1FD00287C
:1038200046D100225B4B30003900FEF7DFFD002857
:103830003ED1EB073CD501353AE006274CE70022A4
:10384000544B08980999FEF7BBFD0028D6D1002EED
:1038500001D0F307D2D50136D0E7AA461F2C11D8E4
:10386000013F0A213000FEF7FDFA651C30310CAB38
:1038700019550A213000FEF7F5FA092E0ED9060077
:103880002C00EBE755461F2C0CD87B1E002F09D0CF
:103890000CAA302111551F000134F4E72B005546C6
:1038A0001C00F0E71F2C03D80CAB2E221A55013454
:1038B0001F2C10D80A212800FEF7ACFA661C303104
:1038C0000CAB19550A212800FEF7A4FA051E01D0F9
:1038D0003400EDE734000323229A1340012B1CD05F
:1038E0001F2C06D84346002B32D00CAB2D221A5584
:1038F0000134229B0393219B029301940CAB009310
:103900004B465A4607990698FFF7CCFA15B0F0BC1B
:10391000BB46B246A946A046F0BD219B002B13D062
:103920004346002B02D10C3313420FD0219B013BA5
:103930002193190003E00CAB30221A5501348C425C
:10394000CED21F2CF7D9CBE72199F8E72199F6E7DA
:10395000229B5B0704D50CAB2B221A550134C8E718
:10396000229B1B07C5D50CAB20221A550134C0E79A
:10397000FFFFEFFFFFFFEF7F65CDCD4165CDCDC1EF
:10398000140F0110180F0110080F0110100F011073
:10399000E82401100000E03FF0B5DE4657464E46F1
:1039A0004546E0B593B007008A4693461193002937
:1039B00000D12CE3002508E06C1C5B462A00514630
:1039C000B847119B013311932500119B18780028EB
:1039D00000D11EE32528EFD10133119300231800F5
:1039E00020E00123184301321192012418E0022340
:1039F000184301321192012412E0042318430132CA
:103A0000119201240CE00823184301321192012481
:103A100006E01023184301321192012400E0002433
:103A2000002C09D0119A1378203BD9B21029F6D86E
:103A30008B00C449CB589F468146119B1A781300CE
:103A4000303BDBB2092B10D92A2A13D00B94119BDF
:103A50001A782E2A20D0119A1378683BD9B21229ED
:103A600065D88B00B849CB589F4611A8FFF708FAD4
:103A70000B90ECE71C9B1A1D1C921B68002B04DBAF
:103A80000B93119B01331193E1E7022201001143D3
:103A900089465B420B93F4E78022D20049461143EA
:103AA00089465A1C11925A781300303BDBB2092B1D
:103AB0000BD92A2ACFD11C9B1A1D1C921C68002CE2
:103AC00008DB119B01331193C5E711A8FFF7D8F963
:103AD0000400C0E70024F4E780235B0049460B4361
:103AE000511C119151786C2901D099461FE0C023D7
:103AF0009B004946194389460232119217E0802300
:103B000049460B43511C11915178682901D09946BF
:103B10000DE0C0234946194389460232119206E05E
:103B200080235B0049461943894601321192119B5B
:103B3000187867281CD8252800D25EE20300253BB0
:103B4000DAB2422A00D958E29300804AD3589F46FD
:103B500080239B0049461943894601321192E6E7CA
:103B600080235B0049461943894601321192DEE702
:103B7000782800D941E2692800D23EE20200693A81
:103B8000D2B201239340724A134210D11A0600D5D3
:103B90000CE25B0500D430E21C9B1A1D1C921E68CF
:103BA000002C00D0BAE101225242330096E16F2886
:103BB00042D005D8582841D0622803D1022606E019
:103BC00078283DD010234A469A4391460A26582821
:103BD00038D0692805D0642803D00C224B46934383
:103BE00099464B465A0502D50122934399466928C6
:103BF0002DD064282BD04B469A0500D5AAE0DA05D3
:103C000000D5C2E05A0600D4D3E01C9A111D1C91C5
:103C10001168FF220A404B4605930B9B04930394C3
:103C200002960023019300925B462A005146380019
:103C3000FFF717FA05002AE00826C8E71026C6E7AE
:103C40001026C4E720224B4613439946C1E74B4652
:103C50009A0520D4DA0551D45A0666D51C9A111D4E
:103C60001C911168FF220A40D017111841404B46A1
:103C700005930B9B049303940296D20F019200913B
:103C80005B462A0051463800FFF7EBF90500119B0F
:103C90000133119399E61C9A073207218A431100D8
:103CA00008311C91116853689C46DB170C930D93E7
:103CB0000C9A0D9B100048400E900D9B61464B40A6
:103CC0000F930E980F990C9A0D9B801A99410E90A4
:103CD0000F914B4608930B9B079306940496002381
:103CE00005936346DA0F0292009001915B462A0029
:103CF00051463800FFF713FA0500C8E71C9A111D5A
:103D00001C911268D0171118414005930B9B049326
:103D100003940296D20F019200915B462A0051460D
:103D20003800FFF79EF90500B1E71A0605D51C9A81
:103D3000111D1C910023D25E96E71C9A111D1C9147
:103D4000126891E7482301108C230110D823011039
:103D5000419000001C9A073207218A431100083164
:103D60001C9108930B9B07930694049600230593DC
:103D7000029353681268009201935B462A005146F1
:103D80003800FFF7CCF9050081E71C9A111D1C9142
:103D900005930B9B049303940296002301931368ED
:103DA00000935B462A0051463800FFF75AF9050098
:103DB0006DE71A0606D51C9A111D1C911268120493
:103DC000120C28E71C9A111D1C91126823E7462843
:103DD0001AD01C9B0733072293431A0008321C9207
:103DE0004A4604920B9A039202941A685B68009206
:103DF00001935B462A0051463800FFF729FC050075
:103E0000119B01331193E0E520234A461A43914662
:103E1000DFE7672801D0472804D180231B014A46E9
:103E20001A439146452801D0472803D120234A460A
:103E30001A4391461C9B0733072293431A0008320A
:103E40001C924A4604920B9A039202941A685B6889
:103E5000009201935B462A0051463800FFF7E6F9CD
:103E60000500119B01331193AFE502234E461E401E
:103E70004A4613421ED001241C9B1A1D1C926A1C28
:103E8000904618785B462A005146B847002E14D158
:103E9000119B01331193454697E5551C5B465146EE
:103EA0002020B84723002A005C1C0B999942F4D8C3
:103EB0001500E1E701232A00F6E7424606E0561C1A
:103EC0005B4651462020B8472C003200651C0B9BF6
:103ED000A342F4D89046DBE701330A0019780029A1
:103EE00002D0511E002AF7D19B1B8022D2004946E6
:103EF000114088464946114202D0A34200D923000E
:103F0000022249461140109149460A4208D02A002F
:103F1000250099463B004746984626E0220044E6A5
:103F2000A1462A005146B2460E0006E0551C5B46EB
:103F300031002020B84723002A005C1C0B999942CD
:103F4000F4D8150022004C46330056469A46914656
:103F50002A0025003B004746984606E01D00013632
:103F6000541C5B465146C04722003078002804D0DC
:103F7000002FF4D06B1E002DF0D115004B464746A4
:103F8000109A002A03D1119B013311931DE50B9E5A
:103F90002A0006E0551C5B4651462020B847230006
:103FA0002A005C1C9E42F5D81500ECE721234A4606
:103FB0001A4313001C9A111D1C91126805930823C3
:103FC00004930394083302930023019300925B4609
:103FD0002A0051463800FFF744F80500119B0133D1
:103FE0001193F2E46C1C5B462A0051462520B84729
:103FF000119B013311932500E7E46C1C5B462A00FA
:104000005146B847119B013311932500DDE40A4F57
:10401000D0E45D450DD35B465A1E5B4651460020F9
:10402000B847280013B0F0BCBB46B246A946A0462C
:10403000F0BD2A00F1E7C046712E00100EB430B575
:1040400084B0010007AC08CC03940122054D009414
:1040500052422800FFF7A0FC04B030BC08BC03B0FB
:104060001847C046692E001010B584B00C0002A994
:1040700002904C6001240448009313006242FFF751
:104080008BFC04B010BDC046732E001000BEFDE7CF
:1040900003000A4A1268002A08D0084A1068C318A8
:1040A000074A9A4206D3054A13607047034A0549F6
:1040B0001160F2E701204042F7E7C046A01D002052
:1040C00000000420542000200020704701204042BE
:1040D0007047000010B5030008001100002B05D147
:1040E000044B1A685B6800F03FF910BD01204042A4
:1040F000FBE7C046B822011010B503000800140009
:10410000013B012B06D801230022210000F0E2F838
:10411000200010BD01204042FBE7012040427047D3
:1041200001204042704701204042704703000020B8
:1041300002229A424041704710B5FFF7A7FF0000E6
:1041400030B583B00D001900002A0BD0074B084C86
:10415000019200932B000200200000F09BF9012047
:10416000FFF794FF034B1A00F1E7C046200F011040
:10417000300F01105C10011010B5EFF30583002B18
:1041800000D000BEFDF756FD034C01E008CC984777
:10419000024B9C42FAD310BD0C0901101C090110FE
:1041A00010B50300080011001B68984710BD0000FF
:1041B000F8B507000D001600437D002B02D0002447
:1041C00000200CE003681100280098472DE03B7D9B
:1041D00010E03B68154802219847601C0134B44246
:1041E00014DA002CF3DD2B19013B1B780D3B5A42EE
:1041F0005341DBB22A5D0A2AF0D1002BEED1A04256
:10420000E7DA3B68211A28189847E2E7B04203DA58
:104210003B68311A28189847002E06DDAD19013D7C
:104220002B780D3B5A4253413B75F8BD38250110A0
:1042300070B505000368002B16D00C4B1C6805E018
:10424000290004C92000FFF7B3FF2469002C09D01E
:104250002368002BF9D0064B1B68002BF0D0A3423B
:10426000F3D1EDE700232B6070BDC046941D002004
:104270009C1D002070B505000C000B68802B05D03C
:1042800023685A1C2260E418257170BD0800FFF7EE
:10429000CFFFF5E710B5FDF783FA074A00231218A0
:1042A0004B41002B03DB05480CF0EAFA10BD01225C
:1042B0005242034BF7E7C04640420F006C18002003
:1042C000FFFFFF7F10B502480CF082FA10BDC04618
:1042D0006C180020F0B5CE46474680B583B0060086
:1042E0000D0090461C00FFF7D5FF81466B1C05D0E2
:1042F000002C08D0184F194B1C6807E030000BF059
:1043000087FB0500F4E7164FF5E72469002C17D06A
:104310002368002BF9D0134B1B68002B01D0A3425C
:10432000F3D12A0031002000B8474346002BECD0DF
:104330006B46D91D0A230B7001222000B847E4E721
:104340004B46002B05D1280003B0C0BCB946B0468F
:10435000F0BDFFF7B7FFF6E7B1410010941D002054
:10436000A14100109C1D0020F0B583B006000F0095
:1043700001920093164B1C6808E0A368002B04D040
:10438000390030009847002820DC2469002C06D032
:10439000104B1D68002DF0D0A542F6D1EDE7009935
:1043A0000A000D4B5B6A994209D80B49896A01984A
:1043B000814209D29A4202D00220404206E0012006
:1043C0000021FDF7F5F9D5E70220404203B0F0BD2A
:1043D000941D00209C1D0020004005400A4A1368DF
:1043E00002E01A0010321B69002B09D013688342C7
:1043F000F7D1002907D1036913600023036102E0AC
:10440000002900D010607047941D002010B5064BA5
:104410001C6800E02469002C04D06368002BF9D0EC
:104420009847F7E710BDC046941D002010B500F076
:1044300043F9012010BD70B505000BF0E9FA040046
:104440000123012201002800FFF744FFFFF7DEFFF0
:10445000200070BDF0B5A3B004000E00FFF71AFFF6
:10446000050001AF00230193094833002200390001
:10447000FFF7FAFD04003800FFF7DAFEFFF7C6FF8A
:10448000002D02D1200023B0F0BDFFF71BFFF9E79C
:10449000754200100FB400B583B004A901C90191A1
:1044A000FFF7D8FF03B008BC04B0184710B582B0BE
:1044B0000C00144BC3185A425341134A5B009B5ED5
:1044C0008B4204D06B46DA1D1470002115E06B4658
:1044D000DA1D0D23137000210029F3D183699B0697
:1044E000FCD41378036001310132F5E783699B0640
:1044F000FCD413780360013101320029F6D002B0F8
:1045000010BDC0460080FCBF4820002082B00022C1
:104510006B46D91D06E08369DB06FCD403680B708B
:1045200001320131002AF6D06B46D87902B07047CB
:1045300070B506000D00002405E0315D034B1868DE
:10454000FFF7B4FF0134AC42F7DB70BD4C20002014
:10455000F8B506000D00002705E07C1CF719FFF7F1
:10456000D5FF38702700AF4204DA0D4A106882691F
:10457000D206F2D50B4A1268002A0AD0084A1268FD
:1045800050219163506B18390140074B9C4662449F
:104590001160002F01D03800F8BD033FFBE7C04693
:1045A0004C2000203C1D00203410000010B5064BAC
:1045B0001B68002B06D0054A126800219163044A4B
:1045C0001068984710BDC0463C1D00204C200020BC
:1045D000401D0020024B1A6893691B07FCD47047EA
:1045E0004C20002070B51D4B1B681D4A934207D01C
:1045F000142400281ED01B4B1B68002B02D070BD5A
:104600001524F6E7174B1860174B1960174920005F
:10461000FCF7DAFA01212000FCF7C4FA0F4B1B6803
:1046200050229A63596B183A0A4011498C466344E8
:104630001A60E4E70B4A1268002AE0D000259D6367
:1046400000212000FCF7AEFA08492000FCF7E6FA4A
:10465000044B1D60044B1D60D1E7C0464C20002078
:10466000008003403C1D0020401D0020AD4500108F
:104670003410000070B50D001C000D4B1860002AAE
:104680000BDA002C0EDA0A4B18682900FDF730F916
:1046900008480121FFF7A2FE70BD02211000FCF7BF
:1046A00029F9EEE702212000FCF724F9EBE7C046E8
:1046B0004C200020D012002010B5074B1B78074B70
:1046C0001B78074B1B78E121012300224902054892
:1046D000FFF7D0FF10BDC046903F01108C3F011086
:1046E000883F011000400340074B98420AD0112335
:1046F00001229A40054B1A60054B1B681100994333
:10470000FAD170471023F3E700C0034000F00040E7
:1047100008C00040F8B5DE4657464E464546E0B56F
:1047200081460E000620FDF795F980464B465A68F3
:1047300002231A40934604224A449246214A4A449C
:104740001360022400E00234FE2C1AD80025200257
:10475000320000230021FEF7C1F9002903D1A9424C
:10476000F1D14045EFD980277F00012F0CD97D1E64
:10477000210069434046FDF775FBB04204D82F0085
:10478000F3E780277F00F0E74B461C617A1E120298
:104790001B685A40FF231B021A4080235B014B44D5
:1047A0001A6080239B0153445A461A6039006143C2
:1047B0004046FDF757FBF0BCBB46B246A946A046B3
:1047C000F8BDC0460430000070B504000D00154B64
:1047D000984224D0112201239340134A13602000F1
:1047E000FFF782FF29002000FFF794FF6268022391
:1047F0001A400E4961180B60256807214D40C831E9
:10480000294080256D0165192960094961180A60F0
:10481000084A94466444032222600B6070BD102253
:10482000D9E7C04600C0034000E00040043000006B
:104830000420000024200000074B83420AD00423F8
:1048400001229A40054B1A60054B1B6811009943E1
:10485000FAD170470323F3E7E812002000F000408C
:1048600008C00040F0B5DE4657464E464546E0B526
:1048700087B0070093461800039310AB1A7805928F
:10488000119D129A90463B680022DA663B68596097
:104890003B680132DA6602900023994604930026B1
:1048A00000242DE03B79002B39D0012337E0059A15
:1048B000002A01D0002236E0012234E0002E0CD183
:1048C0003B685B6BDB0608D4002DF7D00021404627
:1048D000A84706000443E4B2F0E7002E09D13B6884
:1048E00080229A580492002A28D1002C39D1CA4536
:1048F00027D0002C3DD101239C46E144019B9B46DF
:10490000029B994535DA039B013B9A46002D02D064
:1049100001214046A8474B46002BC3D000239B02F1
:10492000CA45C4D00022520213435A4601320192B2
:104930005A4611783A680B431361C5E75B6D012451
:104940000FE0059B002BD4D10BE000214046A84787
:1049500006000443E4B2002E06D13B685B6B9B0566
:1049600002D4002DF1D1F6E7002EC2D13B681B6EB8
:10497000BFE7002C08D0002E10D1049A002A11D0D5
:10498000D30713D4130715D5059B3B71484607B0D1
:10499000F0BCBB46B246A946A046F0BD02235B422E
:1049A0009946F1E701235B429946EDE701235B421B
:1049B0009946E9E701235B429946E5E7F0B5DE4613
:1049C00057464E464546E0B585B00500924618006C
:1049D00003930EAB1A7891460F9E109A90462B685F
:1049E0000022DA662B6859602B680132DA66029081
:1049F00000270023019300244346B8461F00029B72
:104A0000984545DA039B013B9B46002E02D00121CD
:104A10003800B0472B685A6F102AFBD04246002A54
:104A20000BD000229202C3450CD0002149020A4358
:104A3000802149000A431A6119E02A79002AF1D03D
:104A40000122EFE74946002901D00021EEE70121CC
:104A5000ECE7002E05D000213800B0470190044358
:104A6000E4B2002C16D12B689A6F002A08D12B686B
:104A700080229A585A6B5206EBD55B6D0124E8E709
:104A80001B695246137001239C46E044E244B6E79A
:104A9000474600E04746002C04D0019B002B0BD07A
:104AA00002277F424B462B71380005B0F0BCBB4655
:104AB000B246A946A046F0BD01277F42F2E70000BA
:104AC000F0B5D6464F464646C0B505000C00052059
:104AD000FCF7C0FF0600600880192100FDF7C2F94D
:104AE000070043009946814405214846FDF7BAF97D
:104AF00080463B1A9A46274B9C423CD8700080194E
:104B00002549FDF7AFF9441C4346023BA34239D384
:104B10002B680022DA662B68196804325140023291
:104B20000A40802149018C4663441A602B68524632
:104B3000DA612B6842461A624B464F2B28D9502126
:104B40004846FDF78FF92A68A023D0502B68DA6F0A
:104B500054402404240C114A944663441C602B687E
:104B60000122DA6639003000FDF77CF9E0BCBA4674
:104B7000B146A846F0BD700080190949FDF772F9E9
:104B8000441CC1E7074B084A08485D21FFF7D8FAE3
:104B90000120D8E73F420F00809698007C1000006B
:104BA00040787D018C0F011058250110AC0F0110C9
:104BB00070B504000D00114B98421DD00422012352
:104BC00093400F4A13602000FFF736FE0023237145
:104BD0002268D36622686621FF3111602268D363A0
:104BE00022689363226888336339FF39D1502900E2
:104BF0002000FFF765FF70BD0322E0E7E812002008
:104C000000E0004030B585B008AC2578002402945F
:104C100001940095FFF726FE05B030BD30B585B094
:104C200008AC25780024029401940095FFF7C6FE95
:104C300005B030BD0123084A1360084A1360084BD1
:104C40001A6801239343FAD1064B01221A60054BDF
:104C50001B68DB05FBD5704700E0004000F000401A
:104C600008C0004000C0044070B50500082000F0F6
:104C700075F92900040001F019F92000044A0549DA
:104C800000F0CCFE200000F07FF900F01BFAC046D7
:104C9000215D0010C826011070B50500082000F045
:104CA0005DF92900040001F045F92000044A054996
:104CB00000F0B4FE200000F067F900F003FAC046EF
:104CC000615D0010E82601100FB42023F0B583B019
:104CD00000AFFC1820CC28000AF09AFE80239B002D
:104CE000C1180F4B2A009C466B466044C008C000A8
:104CF0001B1A9D46230068467C6000F07BF8082064
:104D000000F02CF96946040001F01EF92000054A64
:104D1000054900F083FE200000F036F900F0D2F9DA
:104D200007020000A15D001008270110F0B5050082
:104D30000C009DB000AF641B69220F49381DFEF7BF
:104D400081F823006A467033DB08DB00D31A9D46E6
:104D50006822391D6846FEF775F868466E462200DF
:104D600029006830FEF76EF800233419683468466D
:104D70002370FFF779FFC046F40F0110F0B55746D6
:104D80004546DE464E46E0B583B000AF84B0EA4605
:104D90000C23534499461D00154B8B46140098462E
:104DA000786020000A21FDF75DF843465B5C013D19
:104DB00020000A212B70FDF755F826000400092E6B
:104DC000EFD84B465D1B5D450FD85346591B2A0053
:104DD00078680C31FEF736F82800BD4603B0F0BC09
:104DE000BB46B246A946A046F0BD01256D42F3E799
:104DF00060100110F0B5C646804600B5013915783F
:104E00004144040016000F000020002D0CD0A742E2
:104E10003BD9252D0DD032782270013601343578FA
:104E2000002DF4D14346E01A0023237080BCB8461D
:104E3000F0BD7278732A14D07A2A03D0252AEAD1D9
:104E40000136E9E7B278752AE5D11D00200004CDCE
:104E5000391BFFF793FF002817DD2B0024180336BA
:104E6000DDE702CB0A78002A06D10CE0013102709E
:104E70000A780134002A06D02000A742F6D1390072
:104E80004046FFF753FF0236C9E721004046FFF7CF
:104E90004DFFC04670B51B4C08386268002A22D00E
:104EA00006688519AA421ED8536822D00434002B04
:104EB00006D124E05968141D1A00002909D00B00FE
:104EC0009D42F7D81BD1536819685B687618536008
:104ED00023681A689918884208D05B6806604360A6
:104EE0002368586001E04260606070BD92191A60EA
:104EF000FBE712684360921902606060F5E71300F7
:104F0000E7E7C046041A0020020030B50832083036
:104F100000D3082207231049073248689A43043116
:104F2000002804D110E0011D406800280CD003685F
:104F30009A42F8D80868036845689C1A072C04D878
:104F400003602B000B60083030BD83185D6008687B
:104F50001C600260F6E7C046041A002070B580307D
:104F60000500FDF749FF041E07D080220021200024
:104F7000FDF762FF2000803070BD2800FFF7C4FFFE
:104F8000041EF2D100F0EAFC074B80389A68DB6817
:104F900010B5D318984201D2824202D3FDF740FFE8
:104FA00010BDFFF777FFFBE7041A0020F0B5CE46EF
:104FB0004746002580B53E4F89B03E487D60BD60C4
:104FC000FD6009F067F9082302933B4B02AE736062
:104FD0000923F360394B040033610423B560736126
:104FE000002842D0364D237828003A3B5A4253419C
:104FF000E4180F2221000AF0C3FA002802D1E37B53
:105000002E2B16D020003A210AF040FB041EEAD1D4
:10501000079C402C27DCB368002B00D106333E33BD
:105020005C43A400FC6023D109B0C0BCB946B046C3
:10503000F0BDB046103443461B689946002B07D09C
:1050400043464A46210058680AF09AFA002803D1DC
:105050004B46E35C3D2B16D00C239C4608ABE0444A
:105060004345E8D1CEE74024D5E78824E400FC603E
:105070002000FDF7C1FEB860002816D0002378603C
:1050800004604360D0E7484601302018002201A99F
:1050900009F0B2FE019C23783A2B01D0002BB1D14C
:1050A0000028AFDB43469860ACE7F860BCE7C04639
:1050B000041A00206C100110801001108C100110D7
:1050C000981001101EB400F093F81EBC0BF0B8FB52
:1050D000F0B5C64600B51E0003780C0082B0472B21
:1050E0001FD00020284D2B6801909B68280098470E
:1050F00001239846002804D0019B1B6801930223DA
:105100009846236829001F692000012301AAB84797
:10511000002826D100239846404602B080BCB846FD
:10512000F0BD43784E2BDCD18378552BD9D1C37891
:10513000432BD6D10379462B1BD0432BD1D14379B6
:105140002B2BCED183792B2BCBD1C279012AC8D876
:10515000002301930300203B1D68012A04D058302E
:10516000C1E7019B3360D7E72B00783B28001D681F
:10517000B9E743794F2BB4D18379522BB1D1C079A0
:10518000024D0028AFD0ACE7F0250110C425011076
:1051900010B5040000F078F822002378203A472B5D
:1051A00005D08368002B20D18260012010BD637878
:1051B0004E2BF6D1A378552BF3D1E378432BF0D1C6
:1051C0002379432BEDD163792B2BEAD1A3792B2BB8
:1051D000E7D1E379012BE4D8D3690133D361012B03
:1051E000E3D1836893618260DFE700F0B7FBC046DC
:1051F00010B500F049F80300806800282DD0202267
:10520000825C472A03D000229A60203010BD263AE3
:10521000825C4E2AF7D12C3A825C552AF3D1323A7D
:10522000825C432AEFD11F3A825C432AEBD11E3ABB
:10523000825C2B2AE7D1053A825C2B2AE3D1043A1F
:10524000825C012ADFD8C269013AC261002ADCD13E
:1052500082699A6000238361D7E700F07FFBC04634
:105260007047C0467047C04600487047A8100110FC
:1052700010B504000421FDF7F3FD200010BDC04669
:1052800000487047F819002000487047F8190020BE
:10529000F0B5D64646464F468A46C0B50600502869
:1052A00024D00F2404400C2C00D96FE03848A4000F
:1052B00000598746547810782402044390780004FB
:1052C0002043D47824060443101D002C08D07025F8
:1052D0003540102D00D1924676B25444002E0ADBA0
:1052E0001C60E0BCBA46B146A846F0BDD01C032203
:1052F000904310C8F4E72468F2E754781078240249
:105300000443907800042043D4782406044310001A
:105310000830DAE75478107824020443901CD4E76C
:10532000547810782402044324042414901CCCE7FD
:105330007F21150000240027884640462978013542
:105340000840B840044348B207370028F5DB28007E
:105350001F2FBAD84D06B8D50125BD406D422C434C
:10536000B5E700218C467F3115000024884647466A
:1053700061462878013507408F400721894640B2B1
:105380003C43CC440028F2DB28009EE708F07AFF7B
:105390000C260110030010B50800FF2B10D070225E
:1053A0001340302B13D004D8202B07D10BF008FA70
:1053B00007E0402B06D10BF05BFA02E0202B04D86B
:1053C000002010BD0020502BFBD008F05BFF0BF03D
:1053D00027FAF6E7F8B505000E0014000020002DAE
:1053E00002D028000BF044FA2060771C3678FF2E9C
:1053F00028D160603B78781CFF2B32D01023002529
:1054000000217F2623753200037801301A408A403C
:105410005BB215430731002BF5DB4519E56000222F
:1054200000257F2603780130637531000378013051
:10543000194091405BB20D430732002BF5DB451953
:105440002561F8BD29003000FFF7A4FF3A000100F4
:10545000231D3000FFF71CFF07003B78781CFF2B53
:10546000CCD100252375D9E7F0B557464546DE4631
:105470004E460023E0B597B003930C930333884660
:1054800017000340012B00D1BAE0022B0ED13900E6
:1054900040460BF0B5F9002800D0AFE0082017B067
:1054A000F0BCBB46B246A946A046F0BD002B00D0DA
:1054B00047E208331C0004400342E8D110AB012549
:1054C0009A464346109353460C220021009338001D
:1054D00000230BF08DF938000BF0F2F9059000284D
:1054E000D5D000235246139313615346039A2C439D
:1054F0001A750599524638000494FFF76BFF139B09
:105500003900069353461D69040002951B7D18005F
:105510000393FFF73FFF534698600FAB0F220790AE
:1055200000939B460021002338000BF0B1F90122C3
:105530000F9B9343013B9946AC4244D253463900FA
:105540005E7D109B524627007F254C469A46894631
:10555000089200213000FFF71DFF3A0001000DAB5B
:105560003000FFF795FE002107003000FFF712FF23
:105570003A0001000EAB3000FFF78AFE0021070061
:105580003000FFF707FF3A0001005B463000FFF7ED
:105590007FFE002100222F00037801301F4097403A
:1055A0005BB239430732002BF5DB0D9B5344A3421A
:1055B00008D80E9A9B18A34200D982E0029B0700EC
:1055C0008342C6D84F46049BDB0771D500260025D1
:1055D0000C9B02935B460D220093002100233800B0
:1055E0000BF056F942460F9B062013624346029A7F
:1055F0009E625A62059A1D63DA6250E709204EE7FF
:1056000008231C0010AA92460440034201D0022540
:1056100057E70D6A0023009200210D2238000BF09D
:1056200037F9109B9D42F2D14346109353460C220A
:1056300000930021002338000BF0DAF843461D6B7D
:10564000002D3BD09E6ADB6A05930FAB9B46002E74
:1056500000DAB7E0032443460F935B4600220021A3
:105660000093380000230BF0C3F85B4601220021B1
:105670000093380000230F960BF0BAF85B460F2218
:1056800000210093380000230BF002F901230F9A48
:10569000002113402B430F935B460F2200933800E9
:1056A00000230BF0A5F8022C00D186E00720F6E6D7
:1056B0000823049A134201D000F050F9404608F044
:1056C000C4FC089B4F469A460F9B002B00D1DEE698
:1056D000524655685D19002900D104E1029B4C1E19
:1056E0009C466444002D00D1D1E6049A08231100A1
:1056F00019400A91134200D103E142463F3313702F
:105700000733537007339370123BD3700333137115
:1057100009335371033393710023D3710023039A28
:10572000994607331A405346BA46089209950B9397
:10573000002600227F210B00207801340340934093
:105740001E4343B20732002BF5DB1F2A05D8400663
:1057500003D5012393405B421E4321000025002214
:105760007F273B0008780131034093401D4343B23B
:105770000732002BF5DB1F2A54D8400652D50123EF
:1057800093405B421D43002E7ED0049B022B12D01F
:10579000002E4EDC069BF7439C464346BF00674401
:1057A0003968002B02D00A9B002B71D0002900D150
:1057B000BBE0002D29D06419BAE74046FFF7E8FCAA
:1057C00007206CE6069B039A1393534605991A75B6
:1057D00038005246FFF7FEFD53463900187D139CF2
:1057E000FFF7D8FDF3439B00E4182368002B05D096
:1057F000002301339A00A258002AFAD1424693624C
:105800000423D0621363546324E74B465746099D33
:10581000002B00D13BE6049BDB0700D537E60026D2
:10582000022418E7002E2CD0049B022BC1D0002E9E
:10583000B0DD039BFF2B54D0089B022B47D04AD9E5
:10584000089B032B49D0042B7BD1069BF2009A1AAC
:1058500007995B460398FFF71BFD0F99002909D0B4
:105860004346002BA5D0002240460CABFFF730FC8E
:1058700000289ED0049B5746099DDB0700D4E9E62B
:10588000A6E60123994694E70123641999464FE758
:105890000C9B02930F9300293ED043465A46A046E4
:1058A000AB461C00150003E07968043700291DD0C1
:1058B0002B00002220007918FFF70AFC0028F3D003
:1058C00022002B0044465D4690469B4671E7069BAE
:1058D00072009A1ABCE7002B33D1069BB2009A1AC9
:1058E000B6E7069AB4E7002D95D1D0E50B9B574655
:1058F0009A46049BAB46A046099DDB0700D4A6E66A
:1059000066E64346DA795833012A01D00C9305E75D
:10591000783B1B680C9301E70B9B57469A46049B08
:10592000099DDB0700D555E691E6049B5746099D86
:10593000DB0700D54CE60324002E00D18BE600F0F7
:1059400019F808F09FFC08F00BFCB5E610B580478D
:1059500008F098FC08F004FC08F094FC024B10B529
:105960001868FFF7F3FFC046FC12002010B580470F
:10597000FFF7F4FF024B10B51868FFF7F7FFC046BA
:10598000F0120020014B18687047C046FC1200203E
:10599000014B18687047C046F012002010B501286E
:1059A00012D80B00283B1A68501E1860012A00D03C
:1059B00010BDDB6858310C00002B01D0080098475F
:1059C0002000FFF7E1FAF3E728394869FFF7BEFF47
:1059D00070B505000026803DEA602E60A9600400D5
:1059E000FFF7D6FF2861FFF7CDFF23004722583B82
:1059F00068611A7007325A7007329A702200432386
:105A0000553A13705370183B9370D370024B513C4E
:105A1000280026702B6370BD9D59001070B50400DE
:105A20000D001600FFF730FC4368320001332900F7
:105A300043602000FFF7CCFF0400012328340360FB
:105A400020000AF035FF200008F08AFBFFF786FFF0
:105A500010B5FFF719FC4268046801324260002C5F
:105A60000CD02022A25C472A0AD0002202602034F7
:105A700020000AF015FF200008F072FBFFF76EFF10
:105A8000263AA25C4E2AF0D12C3AA25C552AECD1DF
:105A9000323AA25C432AE8D11F3AA25C432AE4D1FD
:105AA0001E3AA25C2B2AE0D1053AA25C2B2ADCD15B
:105AB000043AA25C012AD8D8626952426261D6E7F0
:105AC00010B50400024B036000F088FC200010BDFC
:105AD0007C26011010B50400044B036000F07EFC2E
