:020000041000EA
:1000000000B5324B212058609868022188439860DF
:10001000D860186158612E4B002199600221596106
:100020000121F02299502B49196001219960352056
:1000300000F044F80222904214D00621196600F024
:1000400034F8196E01211966002018661A6600F04E
:100050002CF8196E196E196E052000F02FF8012189
:100060000842F9D1002199601B49196000215960AB
:100070001A491B48016001219960EB211966A021F2
:10008000196600F012F800219960164914480160C1
:100090000121996001BC002800D000471248134993
:1000A000086003C880F30888084703B5996A0420EC
:1000B0000142FBD001200142F8D103BD02B5186610
:1000C0001866FFF7F2FF186E186E02BD00000240BE
:1000D000000000180000070000035F00212200005C
:1000E000F4000018222000A00001001008ED00E03C
:1000F00000000000000000000000000074B24E7A12
:1001000000200420F7010010CB010010CD010010E9
:10011000C9010010C9010010C9010010C901001077
:10012000C9010010C9010010C9010010CF01001061
:10013000C9010010C9010010D1010010D301001045
:10014000C1010010C1010010C1010010C101001067
:10015000C1010010C1010010C1010010C101001057
:10016000C1010010C1010010C1010010C101001047
:10017000C1010010C1010010C1010010C101001037
:10018000C1010010C1010010C1010010C101001027
:10019000C1010010C1010010C1010010C101001017
:1001A000C1010010C1010010C1010010C101001007
:1001B000C1010010C1010010C1010010C1010010F7
:1001C000EFF30580103800BE00BE00BE00BE00BECA
:1001D00000BE00BEF2EB8871F45901101C5A0110E8
:1001E0003802001090A31AE71E481F49086006C88D
:1001F00081F3088810471D480068002801D019487D
:10020000F3E70DA40ECC002902D000F012F8F9E7B4
:100210001749184A002000E001C19142FCD116495B
:100220008847164988471649884700BEFDE701C937
:1002300001C29A42FBD370471C5A0110C000002033
:1002400074180020D0710110000004200000042068
:10025000D0710110001004200010042000000000E4
:10026000704700000000000008ED00E0000000D032
:100270007418002044200020755A0010D10300108B
:10028000355A0010F8B5C04606480749091A8B10C0
:10029000C90FC91810B5491003D0044B002B00D06A
:1002A000984710BD7418002074180020000000004A
:1002B000054B10B5002B03D00449054800E000BFF2
:1002C000FFF7E2FF10BDC04600000000881D0020BF
:1002D0002022011010B504001F2101F015FA0022A0
:1002E0000021200001F02AFA0021200001F042FA4A
:1002F00010BD000010B5034800F0A0FA024800F05D
:100300002DFA10BDA01D0020841D002010B5072966
:1003100009D802681F230B40012098401040431E5B
:100320009841C0B210BD034808230A00024906F0F4
:1003300049F9C046302201102022011010B50729CA
:1003400009D8002A0DD01F230B4001229A400368D0
:100350001343036010BD074808230A00064906F04E
:1003600031F91F230B4001229A4003689343036035
:10037000F0E7C0463022011064220110F0B583B0CE
:10038000019000910026002700E00136072E1CDCBA
:100390000725AD1B290001A8FFF7B8FF04002900BD
:1003A0006846FFF7B3FF2418012C00DD01373B1925
:1003B000DA17D21AD20F290001A8FFF7BFFF002CCD
:1003C000E3D1002FE1DD013FDFE7019803B0F0BD8D
:1003D000F0B5DE4657464E464546E0B58BB00025A3
:1003E00005E0D04800220F2100F0DCF90135CD4BAB
:1003F0001B68AB42F5DCCB4800F0E2F9002505E0D4
:10040000C84801220C2100F0CDF90135C54B1B680D
:10041000AB4207DD002DF3D1C24801220C2100F0D0
:10042000C1F9F2E7BF4800F0CBF9002609E0BD4D65
:100430000A220A21280000F0B5F9280000F0C0F9CE
:100440000136B84B1B68B342F1DCB64800F0B8F98E
:10045000002505E0B34807220B2100F0A3F9013580
:10046000B04B1B68AB42F5DCAE4800F0A9F906F0D2
:100470005FF81A20FFF72EFFAB4B1B68E022D2017A
:100480001340AA4A1360AA4B02221A6031E0A94F16
:10049000380000F029FAA84E3378DA43D2B20021AE
:1004A0000091380000F010FA3068FE2857DDA34EA6
:1004B00004F008F8011C306803F0B1FF30609D487B
:1004C00000F012FA9A4B02221A609D4B1868291C00
:1004D00003F0ECFF002801D0994B1D60994B1B687D
:1004E000402B4ED0974A136801331360914800F0B7
:1004F0006FF9954B04221A608B4B1B68DB05FBD50B
:10050000894B58680004000C03F0DCFFE6218905E4
:1005100003F09BFF051C1022002102A804F002F941
:10052000FF2302931022002106A804F0FBF8804B61
:100530001B68012BABD0022B34D0002BD6D17D4DC4
:100540000093FF220021280000F0BEF9280000F0EF
:10055000DDF9C007CAD5764B01221A60C6E7754897
:1005600000F0D4F9C007B0D4744B00221A60744B69
:100570001A60744A002313606F4A13606C4A136058
:10058000A3E76E4E6E4D2968306803F043FF30607C
:10059000694A13680133136000232B60694B002202
:1005A0001A609FE7654B1968281C03F02EFF8B210A
:1005B000C90503F04AFF654F3E68654B9946B40094
:1005C00003F0A2FF4B46185101363E60082E8DD134
:1005D000584800F089F9402004F0B4F882464020E1
:1005E00004F0B0F8814640220021504604F09AF809
:1005F00040220021484604F095F8002608E0544BBC
:10060000B200D058F700574403F05CFF3860013661
:10061000072EF4DD002300220021082000F098FFBF
:1006200083464A46514601F069F8002600E001364B
:10063000072E10DCF3004B445F68404603F042FF96
:10064000011C381C03F038FF0028F0D0381C03F0E0
:100650005BFF8046EBE700241AE0671CFFB2314ED7
:1006600000223900300000F09DF8002239003000EF
:1006700000F098F800223900300000F093F80022D2
:100680003900300000F08EF8300000F099F80134A5
:10069000072CE2DD002407E022480022002100F0C0
:1006A00081F8204800F08CF8072C28DC661CF6B294
:1006B00050219020FFF762FEC2B21A4F310038007D
:1006C00000F070F800223100380000F06BF80022D2
:1006D0003100380000F066F80134200003F0F2FE2B
:1006E000F821890503F0B1FE291C03F0DFFE002884
:1006F000D2D00C48FF22310000F054F8D1E7584620
:1007000004F004F85346002B02D0504604F022F8BF
:100710004B46002B02D0484604F01CF80B4B00223D
:100720001A60E3E6841D002000C0044000D00440AD
:10073000381D0020A01D0020001E0020FC1D0020F0
:10074000081E0020041E002000E004402C1E002093
:100750000C1E002010B5FFF7CDFD10BD10B5040034
:100760000423036005F0E0FA0C490D4805F0AAFCEB
:1007700001210A2000F0C8FF01210B2000F0C4FF76
:100780000D2001F00BF8D0231B06802292015A6243
:100790005A610A2001F01AFE200010BD80969800D0
:1007A0000000044000B583B001AB19705A700222FA
:1007B0001900024811F0D4FC03B000BD0000044051
:1007C000D0231B06802292019A615A617047000073
:1007D00070B50100D02424068025AD02A561482211
:1007E000024811F0BDFC656170BDC04600C0034009
:1007F00070B506000D1C0021281C03F057FE0028D0
:1008000019D1FE218905281C03F056FE002812D1BB
:1008100000240EE00849281C03F017FE03F0A6FE92
:10082000C0B2B16CA20020235B4203438B5401345D
:10083000A4B20F2CEED970BD0000F84110B5040031
:100840004822002103F06EFF231DA364FE218905C9
:100850002000FFF7CDFF1948194905F027FE0321B5
:10086000042000F051FF00220121042000F066FF67
:100870000321052000F048FF00220121052000F09F
:100880005DFF8021C9030F4805F01CFC05211120E4
:1008900000F03AFFD0231B06802292025A625A616E
:1008A0000121122000F030FF0121132000F02CFF65
:1008B0002000FFF78DFF200010BDC046E812002089
:1008C000801A060000C0034070B504AC24780F29DC
:1008D00009D88900866C4D1C7455856C8C1C2B5571
:1008E000836C03315A5470BD30B583B005000024C9
:1008F00008E0E1B20023009300222800FFF7E4FFA4
:100900000134A4B20F2CF4D903B030BD70B584B05B
:100910000B226A44002616700B4C01230093202101
:10092000200005F0EDFD03AD009602232A002021F2
:10093000200005F0F1FD28786B781B021843C043B6
:1009400080B204B070BDC046E8120020F0B5DE46AB
:1009500057464E464546E0B585B00400019199469C
:100960000932FF321700DD0045192B689A463B68B3
:100970009846191C504603F068FD061C6B687A689F
:100980009346111C0093181C03F05FFD011C301CE2
:1009900003F03BFD061C02905946504603F055FDFE
:1009A00082460099404603F050FD011C504603F07A
:1009B00031FD80460390019BDB00FF182068311C4D
:1009C00003F023FD28606068414603F01EFD686067
:1009D0002168301C03F01EFD20606168404603F072
:1009E00019FD60600835083401235B429C46E144F0
:1009F0004B46002BB9D105B0F0BCBB46B246A94668
:100A0000A046F0BDF0B5DE4657464E464546E0B539
:100A10009BB00C910D920893842149008C4662444E
:100A20000B93009201920292040020E04146099B40
:100A30009946181C03F0EEFC5B461860039E311CBF
:100A40000A9D281C03F0E1FC5B465860414648467D
:100A500003F0DBFC3860311C281C03F0DBFC786001
:100A600008340B9B013B0B93002B00D1FFE0089A4D
:100A7000D3009B46A3445B461B689846019B1E68B7
:100A8000311C404603F0E1FC051C58464768019BB9
:100A900058688146011C381C03F0D7FC011C281C37
:100AA00003F0B3FC03900E904946404603F0CDFCA2
:100AB0008046391C301C03F0C8FC011C404603F082
:100AC000A9FC04900F90089A1601A6193768B94638
:100AD00002980768391C484603F0B7FC0590736814
:100AE000984602994B689A46191C404603F0ADFCA3
:100AF000011C059803F089FC05901090514648466A
:100B000003F0A3FC81464146381C03F09EFC011C07
:100B1000484603F07FFC06901190089A53009446D3
:100B20006344DB00E7183A689246009A13689846D7
:100B3000191C504603F089FC07907B689946009A7F
:100B400053680993191C484603F07FFC011C079861
:100B500003F05BFC079012900999504603F075FC76
:100B600082464946404603F070FC011C504603F0A3
:100B700051FC8046139020688246059903F045FC9D
:100B800009901890626891460699101C03F03DFC8C
:100B90000A9019905146059803F03CFC059020609E
:100BA0004946069803F036FC60600799039803F005
:100BB00031FC824614904146049803F02BFC814698
:100BC00015900799039803F020FC03901690414676
:100BD000049803F01AFC804617905146059803F0DC
:100BE00014FC30606068494603F00FFC70600C9A9A
:100BF000D30001998C469C446046019013010299F0
:100C00008C469C4461460291530094466344DB0049
:100C1000009A94469C44614600912168504603F036
:100C2000F9FB20606168484603F0F4FB60600D99B1
:100C30004B68002B00D1F9E64146099B9A46181CE7
:100C400003F0E3FB59460860039989460A9E301C6D
:100C500003F0E0FB5D4668604146504603F0DAFB76
:100C600038604946301C03F0D0FB7860F8E61BB0D2
:100C7000F0BCBB46B246A946A046F0BDF0B5DE4684
:100C800057464E464546E0B595B007000791180017
:100C900006930B00434308A92133DB00D31830CB64
:100CA00030C184235B009A469244D3460590D046D7
:100CB000069BDC003C19226891465A461668311C96
:100CC000484603F0C2FB051C6268594649688A46DB
:100CD0000192101C03F0B9FB011C281C03F095FBCA
:100CE00000900C905146484603F0AFFB81460199B5
:100CF000301C03F0AAFB011C484603F08BFB01905B
:100D00000D90069B1B019A46BA4453461B68404609
:100D100000680390011C0293181C03F096FB061C4C
:100D200053465B68994643465B680493191C4846E2
:100D300003F08BFB011C301C03F067FB061C0E90BC
:100D40000499029803F081FB02904946039803F04E
:100D50007CFB011C029803F05DFB81460F90311C67
:100D6000009803F057FB029010904946019803F059
:100D700051FB03901190311C009803F046FB00904A
:100D80000A904946019803F040FB061C0B90079916
:100D9000CB009B440B01984439688946FC218905A6
:100DA000029803F052FB011C484603F02EFB206022
:100DB00079688946FC218905039803F046FB011CEC
:100DC000484603F022FB606009998946009803F0C9
:100DD0003CFB00900A904946301C03F036FB061C91
:100DE0000B903968029803F015FB38607968039816
:100DF00003F010FB78602168301C03F00BFB5346B6
:100E000018606068009D291C03F0FFFA5346586083
:100E10002068311C03F0F9FA20606168281C03F097
:100E2000F9FA60600837059B013B0593002B00D061
:100E30003EE715B0F0BCBB46B246A946A046F0BDA1
:100E4000F0B5DE4657464E464546E0B5B3B080465F
:100E500013910932FF325943C800101816ACC0C8AC
:100E6000C0C40901511814A860C960C0D900414428
:100E700000911901414406915900C918C900414423
:100E80008B46590141448A46002105915146019102
:100E9000079247461293E0E118AC20003B0006CBD6
:100EA00006C01193009B1A689046139D059A5543FE
:100EB000EB00079A9146994449460E68311C40461A
:100EC00003F0C3FA0290009B59688A464946496874
:100ED0008946504603F0B9FA011C029803F095FACE
:100EE0000290A0604946404603F0AFFA8046514662
:100EF000301C03F0AAFA011C404603F08BFA039061
:100F0000E060069A1668B0462B0107998946994415
:100F10004E463668311C404603F097FA0490069A14
:100F200051688A46494649688946504603F08DFA19
:100F3000011C049803F069FA0A9020614946404672
:100F400003F083FA80465146301C03F07EFA011C00
:100F5000404603F05FFA0B9060615E463668B1462A
:100F60006B005B19DB00079882469A4451460E6875
:100F7000311C484603F069FA04905946496888468E
:100F8000514649688A46404603F05FFA011C0498BE
:100F900003F03BFA0C90A0615146484603F055FA25
:100FA00081464146301C03F050FA011C484603F0CC
:100FB00031FA061CE06101990B6898466D010798AB
:100FC0008246554428688146011C181C03F03DFAEE
:100FD000049001994B689A466D68291C181C03F00F
:100FE00034FA011C049803F010FA04902062291CC2
:100FF000404603F02AFA051C5146484603F025FAFC
:10100000011C281C03F006FA051C6062049A904635
:10101000111C029A9246101C03F0FCF90290A06386
:10102000291C0398814603F0F5F90490E0634146DA
:10103000504603F0EAF908902065291C484603F061
:10104000E4F9099060650C9B9946191C0A9B984627
:10105000181C03F0DFF9051C2064311C0B9B9A4619
:10106000181C03F0D7F9039060644946404603F02A
:10107000CCF90B90A064311C504603F0C6F90C90DB
:10108000E0643E680A95291C029A9046101C03F001
:10109000C1F9011C301C03F0BDF938607D68039B69
:1010A0009946191C049803F0B5F9011CAA46281C9E
:1010B00003F0B0F97860169F391C4346181C03F002
:1010C000C4F9011C0F96301C03F0A4F9051C149EF2
:1010D000B046311C0A9803F0B8F9011C281C03F033
:1010E00099F90D90A062391C049803F0AEF9011C27
:1010F00052461092101C03F08DF9051C311C4E460F
:10110000301C03F0A2F9011C281C03F083F9051C14
:10111000E062179EB146311C099803F096F9061C4F
:1011200015998A460C9803F090F9011C301C03F0C5
:1011300071F90E9020634946089803F086F98021E2
:101140000906461851460B9803F07FF9011C301C24
:1011500003F05BF9061C60630E990D9803F055F9D6
:10116000009B1860311C281C03F04FF9009B58604D
:101170000E990D9803F04EF901990860311C281C56
:1011800003F048F9019948604146029803F05DF97F
:10119000011C0F9803F03EF9051C391C0A9803F056
:1011A00054F9011C281C03F035F9051CA0654146C3
:1011B000049803F04AF9011C109803F02BF9061C5F
:1011C000391C039803F041F9011C301C03F022F98B
:1011D000061CE06549460C9803F037F9071C514698
:1011E000099803F032F9011C381C03F00EF9071CB2
:1011F00020665146089803F028F9804649460B9826
:1012000003F023F9011C404603F0FFF880466066B6
:10121000391C281C03F0FEF8069C20604146301C57
:1012200003F0F8F86060391C281C03F0EEF85D4606
:1012300028604146301C03F0E8F86860119F009B6D
:10124000083300930834069408239C46E34401992C
:1012500008310191059A531C0593059B129A9342FC
:1012600000DA19E633B0F0BCBB46B246A946A04648
:10127000F0BDF0B5C64600B50400884601F0E2FFB7
:1012800002F040F802F078F906000F00042514E09F
:10129000022D0DD0042D0DD00235280001F0D2FF13
:1012A00032003B0001F0B8FF002806D0250004E022
:1012B0000325F2E70225F0E798462900200001F017
:1012C000B3FC0029E4D12900200001F0ADFC0400AA
:1012D00043461D600833424650600128ECDC80BC68
:1012E000B846F0BDF0B5DE4657464E464546E0B539
:1012F0008FB0824606919B4684235B009C469444B3
:101300006346049313680593189BD80003F0EAF929
:10131000002806D00026B146029053460A935B4649
:101320008BE0504C2368DB684F48622201210FF0AC
:1013300079FC2368DB684D48192201210FF072FC0B
:101340002368D9680A200FF0E9F984E0EA004244F2
:10135000E1006144C0CAC0C1ED1801348442F5DB2C
:1013600000254A460B920892079509934EE0FB0030
:10137000029A914699444B461B689A46E500049BA5
:101380009C4665442B689846191C504603F05DF84E
:1013900001904B465B6899466B689B46191C484612
:1013A00003F053F8011C019803F02FF8051C0C9072
:1013B0005946504603F049F882464946404603F0F4
:1013C00044F8011C504603F025F880460D90316822
:1013D000281C03F01FF830607168404603F01AF8CB
:1013E00070600137189B9F4208DA069B039A5343AB
:1013F000E418059BA342BADCE41AB8E7089B099AF3
:10140000944663440893079B01330793079B189AFC
:1014100093420CDA089B0393DE000A9B9C466644C9
:101420003300029A03CA03C300240127DAE70B9BA7
:101430009946099B01229446E144994507DA4D46B5
:101440000024029A94460A9A9046189886E7029BCE
:10145000180003F05BF90FB0F0BCBB46B246A946DA
:10146000A046F0BD1017002070220110D4220110F8
:10147000F0B5DE4657464E464546E0B585B00C0011
:10148000170098460E9B19680822914699445B689C
:101490001E004E43F6008619012B1ED00500CB46D8
:1014A0009946B2460390464688460F9B01935B4699
:1014B0000093330042467A4321002800FFF7D8FF0B
:1014C0003B007343DB00E4184B46DB00ED18AA45F4
:1014D000EBD141464B46039811E005008C4681460E
:1014E000414698463300220041CA41C53A004A436A
:1014F000D200A418AB42F6D16146434648460429BF
:1015000015D008DC02290DD003291BD10F9A390010
:10151000FFF7B4FB0FE0052914D10F9A3900FFF74C
:101520008FFC08E00F9A3900FFF710FA03E00F9ADA
:101530003900FFF767FA05B0F0BCBB46B246A946D2
:10154000A046F0BD00910F9A3900FFF7CBFEF2E7FD
:10155000F0B5CE46474680B583B007000C00213079
:10156000C000002B0DD0002A0FD0196881420FD384
:1015700018601600002E50D0376074600023994622
:1015800023E003F0AFF80600F4E71860160044E02B
:101590001860002641E02000290001F0C9FE330058
:1015A0000933FF334A46D2009846904401F09EFE2C
:1015B000434618602000290001F0D0FE01F096FE9D
:1015C0004346586001239C46E144B94520DA484629
:1015D00001F038FE144A154B01F0C5FD04000D0062
:1015E000380001F02FFE02000B002000290001F05E
:1015F0009CFD04000D007368002BCCD000900B0004
:1016000080221206944663440193009C019DC2E728
:10161000310008313800FFF72CFE300003B0C0BCA9
:10162000B946B046F0BDC046182D4454FB2119C040
:10163000F0B5C64600B582B004000E00150098460D
:1016400091420CD0030008330190009343460122DD
:101650002800FFF70DFF02B080BCB846F0BD002A9D
:1016600018D00068C00003F03DF8071E27D0230003
:10167000083301940093434601223100FFF7F8FE3E
:101680002268D2003900280003F052F8380003F035
:101690003DF8E0E7144C2368DB681448622201211E
:1016A0000FF0C0FA2368DB681148112201210FF006
:1016B000B9FA2368D9680A200FF030F8CBE70A4C52
:1016C0002368DB680B48622201210FF0ABFA236824
:1016D000DB680948182201210FF0A4FA2368D968B1
:1016E0000A200FF01BF8B6E710170020F0220110B7
:1016F0005423011068230110CC23011010B50123DD
:10170000FFF796FF10BD000010B58300084A9A1835
:1017100014684022544080322240064CA446634460
:101720001A60C000044B9C466044416010BDC04636
:1017300004C0014004D001400040014080000C4B37
:101740009C46604400290ED00823002A0DD00422B4
:101750001343026853400C221340802252019446E6
:101760006044036070470023EFE70022F0E7C046C3
:1017700004C00140002906D08000064B9C4660440E
:101780004023036070478000034B9C466044402325
:101790000360F7E704E0014004F0014010B50123C5
:1017A0008340D0221206936293610521FFF7ACFFBC
:1017B00010BD00000FB400B583B0084804F0B9FABA
:1017C000049B002B07D005A90191180004F0C0FA72
:1017D000034804F0AEFA012004F0D6F8E823011023
:1017E000C82B0110EFF3108072B6034B1B68002B5F
:1017F000FBD0BFF35F8F70472C0100D0BFF35F8F2A
:10180000024B00221A6080F3108870472C0100D030
:10181000F8B506000C001500FFF7E4FFE308F71821
:10182000F15C07222240012393400B4205D1DBB239
:101830000B433B70FFF7E2FFF8BD21002800FFF7E4
:10184000B9FF0000054A1078431CDBB21370172B58
:1018500002D9130010221A707047C04648120020A7
:10186000002307E0054A9A189200BFF35F8F00211A
:10187000116001331F2BF5D97047C046400000347A
:10188000074B9B68103080001950BFF35F8FBFF388
:101890005F8F044B0021196082F310887047C046A7
:1018A00000ED00E0240100D00048704700E400E0B3
:1018B00010B5FFF7F9FF002302E0034A04C001332B
:1018C000072BFAD910BDC0468080808010B50388F0
:1018D000DA0A1C2A05D15B055B1502335B00C018D0
:1018E00010BD034B034A8E210348490004F0A6F8BB
:1018F000F8230110AC3C01101024011010B5091A96
:101900000B1F0A4A88180A4A904208D8C90706D409
:101910005B105B055B0D0748184380B210BD064B9A
:10192000064A87210648490004F088F8FC070000B1
:10193000FE0F000000E0FFFF58240110A03C011042
:101940001024011010B5091A04394A08090B08D1EE
:101950004905490D064B0B430380064B1343438057
:1019600010BD054B054A8B210548490004F066F877
:1019700000F0FFFF00F8FFFF882401107C3C0110FD
:101980001024011001238340034A10681840431EAD
:101990009841C0B27047C04600E100E0002A05D07F
:1019A000044BC0225200995019607047014A8023AD
:1019B000D150FAE700E100E010B50A001F23034010
:1019C000012199404009FFF7E9FF10BD024B9B68D8
:1019D00010308000C058704700ED00E070B5040082
:1019E0000D00EFF3108672B60C4B1B68002BFBD07A
:1019F000BFF35F8F2000FFF7E9FF094B984201D04A
:101A0000A84205D1320029002000FFF739FF70BD40
:101A1000044B054A0548ED2104F010F8240100D0DC
:101A2000C101001098240110BC3C011010240110C9
:101A3000F0B5CE46474680B583B006000D00EFF303
:101A4000108872B64F4B1B68002BFBD0BFF35F8F23
:101A50004D4B9A6834001034A300D7584B4B9F422B
:101A600007D0AF4200D18AE00197494BFB1A2F2BD8
:101A700009D9424639003000FFF702FF03B0C0BC6D
:101A8000B946B046F0BD3000FFF77CFF814600212B
:101A90003000FFF791FFBFF35F8FEFF3058100295F
:101AA00001D08C4211D10123019C9C430020A368EA
:101AB0009D4211D00622A256002A0CDB53009B182F
:101AC0009B00334A2000D418F1E7324B324A3348A6
:101AD000334903F0B3FF20009D4249D106256557E5
:101AE000002D2BDB2A4B6A00521992009B189A6832
:101AF000A260DA79E2719B795BB2A371002B0FDAF5
:101B00002848A080224B6A00521992009B18264A4E
:101B100011789971157049463000FFF74DFFA8E71D
:101B20006800401980001A4BC0180430FFF7CEFE41
:101B30000100231D1800FFF7E1FEE2E7002912D1A2
:101B400000280ED0FF238371184B838016490B7831
:101B5000A3710F4A164BA41A644163431B0D0B700B
:101B6000D9E70A4FF2E71349201DFFF7EBFED2E752
:101B7000114B094A91210948890003F05FFF034F87
:101B800077E7C046240100D000ED00E0C10100105D
:101B90004C120020D02401108C3C011010240110A4
:101BA0000202000001BD00004120002001BDFFFF36
:101BB000AAAA00008612002004250110F8B501220F
:101BC00002432C4BD31A2F2B28D8EFF30583002B7D
:101BD0002AD0EFF3108472B6274909680029FBD098
:101BE000BFF35F8F234D25490600761B7641714375
:101BF000090D4DB2224989689B00C958914219D0FC
:101C00000021032930D81B4B4A00521892009B1820
:101C10009B795BB2AB421DD00131F2E7194B1A4AF6
:101C20001A481B4903F00AFF1A4B174A17481A496A
:101C300003F004FF124A92681849D150184B1A78E1
:101C400082711D70BFF35F8F0B4B00221A6084F30B
:101C50001088F8BD074B4A005618B6009E19FF279A
:101C6000B771104AB280E9E70F4B074A07480F499E
:101C700003F0E4FE4C120020240100D0AAAA0000C8
:101C800000ED00E00C250110603C01101024011053
:101C90007F0200003425011082020000C101001003
:101CA0004120002001BDFFFF4025011093020000EC
:101CB000024B9C466144890001607047400000343B
:101CC00010B50400FFF7BEFD01002000FFF7F0FF94
:101CD000FF232371BFF35F8F10BD10B50400FFF722
:101CE000B1FD01002000FFF7E3FFFF232371002374
:101CF0006371BFF35F8F10BD10B50D4C09E00D4B44
:101D00000D4A0E481A2103F099FE2000FFF7D8FF74
:101D100008340B4B9C4209D22368002BF5D0012BD1
:101D2000EDD12000FFF7D9FF0834F2E710BDC0461F
:101D30006C18002048250110FC3C0110682501109A
:101D40007418002030B5846A151B0B1D9B001B58AE
:101D50001B1B9D4204D3046A01238B40234202D102
:101D6000043189000A5030BD000408437047000068
:101D70000A4B1968EFF3108372B60A68002AFCD088
:101D8000BFF35F8F054A1268BFF35F8F00211160B8
:101D900083F3108840BF00200021704734200020CA
:101DA000F0B5DE4657464E464546E0B587B0EFF300
:101DB000058303221A409246AE4B9200D7583B78D7
:101DC000534507D10123524693409946AA4B4A46B0
:101DD0001A6025E1A94BAA4AAA48922103F02EFED7
:101DE0007A6973009B19DB009046984443469C68CF
:101DF000DD68A54800F0ACFB001BA941002900DA12
:101E000016E1002D74DB43461B699B469F4B9B45A7
:101E10004FD00823F85E4346598889B2FFF7A4FFE4
:101E200043465969D847029003910299039A0B00DF
:101E3000100013435CD013000A00002847DAA41AEC
:101E40009D41009401954346009C019D9C60DD608E
:101E50000021595E002900DAEAE078694B005B183E
:101E6000DB00C3189A68DB68A41A9D41002D00DAD4
:101E7000DEE039813D000835844604912A0005974B
:101E8000B346009E019F049B002B2ADB0023D45EF7
:101E900063001B19DB0063449C68DD683000390077
:101EA000001BA94100291CDB1A000021595E049186
:101EB000E9E743465B699B461B69584698470028FB
:101EC00016D05B461A685B6802920393ADE76E48D2
:101ED00000F03EFB029B039C1B184C4100930194B5
:101EE000B1E70499059F5E464346198016809FE03E
:101EF000434600229B5E3B813A69EFF3108372B642
:101F000011680029FCD0BFF35F8F02217A5E414641
:101F10000A807E803A69BFF35F8F0021116083F3EE
:101F2000108885E03969EFF3108372B60A68002AD9
:101F3000FCD0BFF35F8FB88800B201225242BA8052
:101F40003A69BFF35F8F0021116083F310880500A9
:101F5000BC461CE0049300229A5E002A0EDB049B20
:101F60000021595E4B005B18DB0063449868D96818
:101F700034003D00241A8D41002DEBDA04995D46B2
:101F8000009B9C4644460D800023E55E2280002D88
:101F900012DB634658696C006419E4000419A668F2
:101FA000E7686146083108229A5EAB4604916346B1
:101FB0000093A0468446D0E767463EE00023BB710D
:101FC000390008310823F85E0EE001246442E51769
:101FD0009460D56008243B5F834204D00E800824BF
:101FE0003B5F138038813000431C29D07C6943005B
:101FF0001B18DB00E218E65E53881BB2002BE4DB03
:102000001100F0E722002B0051461F48FFF79AFE0F
:102010001D4800F09DFA241A8D41002D22DC1FD0AE
:10202000194B4A465A630823FE5E002E00DBD7E6B2
:10203000BB881BB2002B00DB74E7BB79002BBDD142
:102040000823FA5E002A0DDB796953009B18DB0038
:10205000CB189C68DD68631CD4D16B1CD8D0D1E749
:10206000002CDDD040BF07B0F0BCBB46B246A9464D
:10207000A046F0BDEC1D00203C700540FC25011081
:10208000283D01102826011000400540A11D001028
:1020900070B504000D0011000126AE400662280054
:1020A000FFF79CFC01212800FFF786FC024B9C46B1
:1020B0006444266070BDC04638200000F8B5CE46A6
:1020C000474680B50600894690461F00C160FFF76D
:1020D000B9FB154B9C466044800030614346337029
:1020E000BBB27381D0221206127872700122524262
:1020F0003281B2809B187380002406E0621E7369EF
:1021000065002D19ED005A530134BC42F6D3074B3C
:1021100042469200D650064A41464846FFF7B8FF6D
:10212000C0BCB946B046F8BD40000034EC1D0020EC
:10213000A11D001010B5064B1B69002B01D00448EF
:1021400010BD044B044A0548652103F077FCC046E6
:102150009412002068260110103D0110282601105D
:10216000F8B504000569EFF3108072B629680029FC
:10217000FCD0BFF35F8F0221665E6569710089192B
:10218000C9006D18002E02DB0027E95F618021691C
:10219000BFF35F8F00270F6080F31088002E2CDBC9
:1021A0000699296107996961AA60EB606B88013320
:1021B0005B04590C002B00D1012169803000FFF72E
:1021C000D3FD2169EFF3108372B60A68002AFCD0B0
:1021D000BFF35F8FA2882A80A6802269BFF35F8F3A
:1021E0000021116083F31088E368217801228A407E
:1021F00003498C4663441A60F8BD01204042FBE766
:102200003C20000070B582B0060014001D0008AB31
:102210001B78002B07D100F0CDF922002B00121AF9
:102220008B41002B0ADB079B0193069B0093220046
:102230002B003000FFF794FF02B070BD0020FBE7D9
:10224000F0B5C64600B584B00500884616001F00EC
:102250000AAB1C78FFF76EFF0294019700962A00E4
:102260004346FFF7CFFF04B080BCB846F0BD000086
:1022700030B504000A1443899A422EDA40695300AB
:102280009B18DB00C3182569EFF3108272B628682B
:102290000028FCD0BFF35F8F588885B20904090C71
:1022A000884212D000202369BFF35F8F002119609C
:1022B00082F31088002811D0E368217801228A4037
:1022C00007498C4663441A6008E00649294389B2ED
:1022D00059800123A3710120E5E7002030BDC046ED
:1022E0003C2000000080FFFF10B50400FFF722FF34
:1022F0002100FFF7BDFF10BDF0B583B006000F0051
:10230000EFF30583002B1AD106246442E517A419C4
:102310007D418D4202D803D1844201D90024002599
:1023200000F048F922002B00121A8B41002B0BDC25
:1023300008D03000390000F04FF903B0F0BD164866
:10234000FFF738FA002AF4D0144A00230093200043
:102350002900FFF775FF002813DAEAE7104B196828
:10236000EFF3108372B60A68002AFCD0BFF35F8FC8
:102370000B4A1268BFF35F8F0021116083F310884E
:1023800020BF084B5B6A9D42E8D80649896AA14292
:10239000CFD29D42CDD1E1E78C260110711D0010F6
:1023A000342000200040054070B504000D0000F00E
:1023B00001F900196941002902DBFFF79DFF70BD9B
:1023C000012040420049F8E7FFFFFF7F10B5FA22E5
:1023D00092000023002101F0FBFFFFF7E5FF10BD95
:1023E000F0B5CE46474680B583B005000C00EFF34C
:1023F0000583002B15D03F4B5B6A8B4209D33D4AC6
:10240000926A82420BD28B4201D0012002E000206E
:1024100000E0002003B0C0BCB946B046F0BD0120CA
:10242000F8E7FFF787FEC3689946037898462E00C1
:102430002700484600F08CF802000B00B61A9F41B6
:10244000434604339B004A469B581B1A0022BA425B
:102450000FDC0CD020BF274B5B6A9C422DD8254A4D
:10246000926AAA422BD29C4225D00120D2E7B342E5
:10247000F0D9214A0023009328002100FFF7E0FE55
:1024800000281EDD1B4B5B6A9C4205D8194A926AE4
:10249000AA4202D29C4200D120BFFFF725FF154B74
:1024A0005B6A9C4221D8134A926AAA421FD29C427C
:1024B00019D00120AEE70020ACE70020AAE70120F8
:1024C000A8E70C4B5B6A9C4209D80A4A926AAA4266
:1024D00007D29C4201D001209CE700209AE700200F
:1024E00098E7012096E7002094E7002092E701207A
:1024F00090E7C04600400540711D0010004870473D
:102500000040054010B50B4B1B69002B04D00A4856
:102510000A21FFF7CDFB10BDFFF7F0FF04000321F8
:1025200000F00CF80348102303222100FFF7C6FD3A
:10253000EDE7C046941200203420002010B5024A76
:102540000248FFF765F910BDDC260110441D00208C
:102550000200436A906A1900536A9942FAD170479F
:10256000416A00E0416A9942FCD300E0416A994225
:1025700002D1816A9142F9D37047F0B5C64600B5E1
:10258000804614001D00FFF7E3FF06000F00220045
:102590002B0092197B41994202D804D1904202D972
:1025A00001225242D3174046FFF7DAFF80BCB846FB
:1025B000F0BD000010B50248FFF7CAFF10BDC046CD
:1025C0000040054010B502000B000248FFF7D5FFA0
:1025D00010BDC0460040054010B502000B00024887
:1025E000FFF7BEFF10BDC04600400540074B9842B4
:1025F0000AD0162301229A40054B1A60054B1B682E
:1026000011009943FAD170471723F3E70080034084
:1026100000F0004008C0004070B5046BE30701D42F
:10262000200070BD0B4BC3180B4A1A60456A836AC1
:10263000AD01ED18AD02062000F016F9074900F0D3
:102640001BFB0100280000F017FB0021FFF7BAFF79
:10265000E6E7C04630300000010300004E0E0000E7
:1026600070B504000E001500FFF7D6FFE36A5E4068
:102670003540024BE3181D60206370BD2C10000034
:1026800070B505000C00062000F0EEF8C000210037
:1026900000F0F2FA0130C60907D00E4B9E4215D861
:1026A000400834003F26064000E001246C62AE6220
:1026B000002200212800FFF7D3FF062000F0D4F805
:1026C0008000A101891900F0D7FA70BD0026024CE4
:1026D000ECE7C046FEFF0000FFFF0000002909D024
:1026E0000A22064B9C46604443425841044B40003A
:1026F000C252704780225200F3E7C0460080FCBF00
:102700003820002070B504000D00062000F0ACF861
:1027100000281ED0104B9C421CD01622012393404F
:102720000E4A13602000FFF761FF00212000FFF731
:10273000D5FF29002000FFF7A3FFE26A70235A406B
:102740000E331340064AA2181360064B236303237B
:10275000A36470BD1722E1E70080034000E0004061
:102760002C10000001030000F8B5D646474680B59E
:1027700006000D001700984644002418A400294BB9
:102780009C4664446368089A934200D26260331F97
:10279000DBB29A46012B2ED980221201C0239B0165
:1027A000E3181A60204BB200D158002907D05869AD
:1027B00000F062FA013043001B18033BFDD27F0199
:1027C00023685F40E0233B4080225201A21813603F
:1027D0005346012B1AD980239B01E3188022120152
:1027E0001A60089B6360104BB6004246F250C0BCB2
:1027F000BA46B046F8BD012DCED10322C0239B01BD
:10280000E3181A60A368DB07FCD5D8E721686940A4
:1028100003230B401360A3680122AA401A42FAD096
:10282000D9E7C04600800040481D0020F0B583B0C5
:1028300005000E0017001800089900F01DFA0300AB
:10284000089A140200943A0031002800FFF78CFF28
:1028500003B0F0BD10B582B0802464000094FFF78F
:1028600083FF02B010BD0000014B8000C0587047CC
:10287000481D0020F0B5C64600B504000E00170044
:102880001D00374800F0F8F98046364BFA18364BF1
:102890009A4239D80100380000F0EEF90200103AEF
:1028A00098235B009A4235D86B1E062B38D8069BBE
:1028B000013B062B34D83F09474537D32D04069BEF
:1028C0001B031D432368002B36DB284B9C4244D05E
:1028D0000C2201239340264A1360264A1360264A9D
:1028E0001268190091430A1EF9D12660A060234B9B
:1028F000E31821321A602268002AFCDAE560082217
:102900001A6080BCB846F0BD1D4B1E4A1E481121FE
:1029100003F094F81D4B1B4A1B48192103F08EF855
:102920001B4B184A18481C2103F088F8194B154A0C
:102930001548232103F082F822683F231340B34255
:10294000C3D1A3681B051B0D8342BED1E368EE22F1
:10295000D2021340AB42B8D1D3E70D22B9E7C0464B
:10296000001BB70080E84BD380F8A93200C00240BA
:1029700000E0004000F0004008C0004004300000CB
:1029800000270110483D0110502701109827011021
:10299000B42701100028011080239B000B43014A3B
:1029A000D36270470080054010B5010018231B88D2
:1029B00014221088984710BD10B5010018231B88F9
:1029C00016221088984710BDF0B5C64600B507001E
:1029D0000E0000250123984600E00135B5420AD2D9
:1029E000AC003C192068FFF7DFFF20600028F4D11D
:1029F00000239846F1E7404680BCB846F0BD000091
:102A0000074BAA2212011A608D225200DA60054B90
:102A1000054A1A60024B5B68002BFBDA7047C04620
:102A2000004002400060024000B0FA0010B504000F
:102A300001E008CC9847024B9C42FAD310BDC04637
:102A40000C2201107047000010B50248FFF7EEFF9E
:102A500010BDC046D0210110054B064A1A60064B36
:102A6000064A1A60064B1A68044B9343FAD1704722
:102A700000E00040BFCDFBFE00F00040FE7F3C00C8
:102A800008C00040044BDB6C002B03D1034B8022B9
:102A9000D2021A607047C046000011504C201150FD
:102AA000044B054A1A60054B1B68DB43DB01FAD176
:102AB0007047C04600F00040FFFFFF0108C0004023
:102AC000034B40229A675A671A67DA667047C04616
:102AD00000F0014010B5FEF7C3FE10BD10B50C4A62
:102AE0000C4BD21A92101400302A00D930229200D6
:102AF0000948084901F01CFE04E0084A064BA10001
:102B0000CA5001342F2CF8D9034B054A936010BDED
:102B1000C00100100001001000000020C1010010E1
:102B200000ED00E070B50420FFF79EFE064900F0BE
:102B3000A3F805000024002C00DD70BDE0B22900E0
:102B4000FFF72AFF0134F6E740420F0030B583B0AB
:102B5000274B00229A67FFF753FF264B01221A608A
:102B6000234B5B6C012BFBD1234B03221A60204BC0
:102B70009B6B012BFBD10133009304331F4A0121CE
:102B80001F48FFF777FE052300931E4A01211E48C8
:102B9000FFF770FE1D4B002202210420FFF75AFEB2
:102BA0001B4D2B00002201210520FFF753FE194C7D
:102BB0002300002200210720FFF74CFE2300002203
:102BC00000210820FFF746FE8023DB00009323004E
:102BD000002200210920FFF729FE2B0000220021FE
:102BE0000620FFF737FEFFF79DFF03B030BDC0465C
:102BF000008000403CB0004030B00040002F6859D9
:102C000000800240008C864700C00240001BB700D5
:102C100040597307006CDC0201480421014B18473E
:102C2000B0120020C9290010124A936F9B0815D2D8
:102C30009066D166002905D0FFE7FFE7FFE7516FF7
:102C4000106F704704B580210906C2175140002853
:102C500000D0C8430FF06CFA002104BDF0B5146E2B
:102C6000556E576F166FFFF7E3FF1466556657678B
:102C70001667F0BD000000D0114A936F9B0813D275
:102C800010665166002905D0FFE7FFE7FFE7516FA7
:102C9000106F704704B5002801D00020C0430FF02A
:102CA00047FA002104BDC046F0B5146E556E576F4B
:102CB000166FFFF7E5FF1466556657671667F0BD98
:102CC000000000D094464A4A926F9208624601D2B0
:102CD00028E0C046F0B5464E346E756E776F366F9D
:102CE00000F020F89446424A146655665767166706
:102CF0006246F0BD94463E4A926F9208624601D207
:102D000054E0C046F0B53A4E346E756E776F366F4C
:102D100000F04CF89446364A1466556657671667B5
:102D20006246F0BD002B24DB11D000293EDA00B54D
:102D3000C943404200D1013100F038F8C943404254
:102D400000D10131DB43524200D1013300BD002AE2
:102D5000EBD1002801D1002905D00020C90FC907F7
:102D600001D1C043410800B50FF0BAF90022002399
:102D700000BD00B500290ADBDB43524200D101331C
:102D800000F014F8C943404200D1013100BDC943ED
:102D9000404200D10131DB43524200D1013300F007
:102DA00005F8DB43524200D1013300BD002923D195
:102DB000002B18D1002A0CD0BC460D4F38667A661D
:102DC00000210023FFE7FFE7FFE77A6F386F6746D0
:102DD0007047002801D00748010000B50FF080F9C6
:102DE0000022002300BD02000B00002000217047DC
:102DF000000000D0FFFFFFFF002B00D0BFE0130C4E
:102E000028D1002AE7D080B4114F39667A66FFE7EF
:102E1000FFE730B4040C7B6F396F1B0423433B6620
:102E20007A66FFE7FFE7FFE7C04684B27B6F3D6F3E
:102E30001B0423433B667A66FFE7FFE7C046002397
:102E40002C042D0C7A6F386F00196941B0BC7047A3
:102E5000000000D0F0B594460025140E01D11202F6
:102E60000835140F01D112010435940F01D19200DD
:102E70000235D40F01D152000135D40B0134254F56
:102E80007C66254C3C660E0C93B2FFE7FFE7FFE73C
:102E90003C6F6643360C7703BE467343DF0B5B041F
:102EA000C01AB941130C7343DB18C91ACE08664324
:102EB000360CB64493B273431F0F1B01C01AB941BD
:102EC000130C73431F0B1B05C01AB941860D8F02EB
:102ED0003E436643360C092D24DB520A7243801AA6
:102EE0007703460A6643360C16235B1BDE40DF4041
:102EF000BF1964466643821B7046043506330100E1
:102F0000D940A840C01900D30131A24206D2002303
:102F1000F0BD0000000000D0FFFFFFFF121B0130DA
:102F2000F3D3F1E709277F1BFE406446A2B2724348
:102F3000801A00D20139220C7243130C1204821A37
:102F400099410B007046043513370100F940A84041
:102F5000801900D30131002B02D1A2420AD2F0BD68
:102F6000013000D30131121BFAD2013BF8D1A24249
:102F700000D2F0BD013000D30131121BF7E7F0B5EC
:102F80001C0C00D080E00CB400251C0A04D11B02EC
:102F9000160E3343120208351C0B04D11B01160F09
:102FA0003343120104359C0B04D19B00960F33432D
:102FB00092000235DC0B02D192185B4101351C00F6
:102FC000971864410134464F7C66464C3C660E0CB3
:102FD000FFE7FFE7FFE7C0463C6F6643360C770329
:102FE000BE4697B27743C01B00D20139C01B00D246
:102FF00001399FB27743C91BC91B170C77437E0465
:10300000FF0B801BB941CE086643360C0C2D33DB19
:10301000B644120B1F053A431B0B97B27743C01BF4
:1030200000D201399FB27743C91B170C77433E0486
:103030003F0C801BB941860D8F023E436643292712
:103040007F1BFE400C3D7746AF40BF1930BCA2B29B
:10305000ABB272437343801A9941220C7243130C32
:103060001204801A994102000B000137001BA9418C
:10307000F9D2781E0021F0BD0C277F1BFE40774659
:103080007F0BAF40FF19E0E700245D1C07D0144F11
:103090007D663966FFE7FFE7FFE7FFE73C6F95B224
:1030A0009EB265436643401BB141150C1E0C65433F
:1030B000664336042F0C3E432D04401BB141994218
:1030C00004D202000B0020000021F0BD01D190428B
:1030D000F7D3801A994101349942F2D3F6E7000000
:1030E000000000D0FFFFFFFF44464D4656465F46B6
:1030F000F0B47047F0BCA046A946B246BB46704744
:1031000048404140484018B41B4B5B68FC46019363
:1031100008BD04DFDF37001018B4174B1B68FC46EE
:10312000019308BD00DFE93700109446134A926FFF
:10313000920809D2624618B40F4BDB68FC46019333
:1031400008BD0CDFA13A00100C4AF0B5146E556EA4
:10315000576F166F6246FFF7EEFF084A1466556612
:1031600057671667F0BD18B4034B9B68FC46019384
:1031700008BD08DF45390010301E0020000000D0D7
:10318000FFB550404240504059404B40594000E04C
:10319000FFB5154F4C00640D03D0BC4204D10C03A5
:1031A00014D80020090D09055C00640D03D0BC4251
:1031B00004D11C030AD800221B0D1B0501264B401D
:1031C00009D44B4003D58B4200D18242FFBD9942C6
:1031D000FCD19042FFBD0B43DB1803431343F5D0F2
:1031E000C9434918FFBD0000FF07000000B5FFF705
:1031F000CFFF804100BDC04600B5FFF7C9FF01D930
:10320000002000BD012000BD00B5FFF7B9FF01D9C6
:10321000002000BD012000BD00B5FFF7B1FF8041D7
:1032200000BD012040054A00121804D85A001218A7
:1032300001D80020704701207047000000210028BD
:1032400005D17047C1174840401AFAD0C90713B5D5
:10325000064B1B6898470CBC441CA2401005120B7F
:103260000349091B09051943114310BD301F0020F4
:103270001F04000010B54C00620D8023D218DB0043
:10328000D21A5B057E2A10DD9E3A13DACC170903A9
:10329000490819435242D140640001341532202AB2
:1032A00005DAD0400843604310BD002010BD084639
:1032B000604310BDC80FC018013810BD18B4044BCE
:1032C0005B6AFC46019308BD24DF7D3E00100000D0
:1032D000301E002018B4044B1B6EFC46019308BD41
:1032E00060DF8B3F00100000301E002018B4044B3C
:1032F000DB6FFC46019308BD7CDF153F001000002A
:10330000301E002018B4044B9B69FC46019308BD95
:1033100018DF6D3C00100000301E0020024A034BF5
:1033200000B500F037FA00BD182D4454FB211940B8
:103330008A0002D3920D092A08DA18B4064BDB6B17
:10334000FC46019308BD3CDFBF40001000B5FFF70D
:10335000E5FF04BC9646F0E7301E00208A0002D349
:10336000920D092A08DA18B4064B1B6CFC4601932F
:1033700008BD40DFCF40001000B5FFF7CFFF04BC11
:103380009646F0E7301E002070B513231C78012C00
:1033900012D0012C12DC214B214A93642148FFF703
:1033A00003FB214B186070BD1C491D4A98008150D9
:1033B00001331F2BF8D9ECE70023FAE71B48FFF78E
:1033C000FBFA05001A48FFF7F7FA023803789B006A
:1033D0007F2B09DD12488022290001F0A9F9022C77
:1033E00008D0022CDADCD6E7124B134A13483321FB
:1033F00002F024FB124B1A88B5231B029A4209D112
:10340000104B1A88104B9A4204D1104B1A88104B5B
:103410009A42E6D00020FEF7CDF9C046A53700104D
:10342000301E00204C330000301F002053440000A9
:10343000534600001C280110543D01106028011063
:1034400054380000D8380000494600009C3800007D
:1034500059460000F0B5DE4657464E464546E0B5B3
:1034600085B004000D00009201930E9B9A46002B3C
:1034700044DD019B191101204042FFF7FDFB039041
:1034800000239B4628E00C239946AB11039A534333
:103490001D224946521A134101335B1098464B4690
:1034A000203B21D422009A40170023004A46934033
:1034B0001E004346D917009A019B404600F088FF42
:1034C00034003D00241A8D415B464A4693404344F4
:1034D0009B4653469B1A9A465346002B11DD534692
:1034E0000C2BD0DCD146D0E720235B1A2200DA4037
:1034F00013002A008A4017001F43D6E700230393D6
:10350000BEE7009A019BAB4209DC01D1A24206D87A
:10351000009A019BA41A9D4101239C46E344009A12
:10352000019BAB4209DC01D1A24206D8009A019B63
:10353000A41A9D4101239C46E344002D0DDB0F9B03
:10354000002B01D05A461A602000290005B0F0BCBB
:10355000BB46B246A946A046F0BD009A019BA418FE
:103560005D41012149428C46E344002DE7DAA4186D
:103570005D41E344E3E70000F0B5C64600B5060050
:103580000F000B0D5B055A0D002B25D01E4BD218DA
:103590002AD43424A31A9846002B22DD203B28D4B9
:1035A00001259D402B0001254446A5402A00012409
:1035B0006442E517A4185D41002903DA24184D413F
:1035C00026002F00002554429D413300234018005F
:1035D0003B002B40190004E00022C90FCB0710006C
:1035E000190080BCB846F0BD002909DA002007495F
:1035F000F7E720254346ED1A0124EC402300D2E7EB
:1036000000200021EDE7C04601FCFFFF0000F0BFF5
:10361000F0B5D6464F464646C0B58CB007900292EC
:103620000393029ECB0F9A460A0D5205520D0D03CD
:103630002D0B80277F03002300240493059404901E
:103640003D430595029C039DEB0F9946039B1C0D82
:103650006405630D9846039B1B031B0B34001F433B
:103660003D00149B002B02D00023149E3360464B78
:103670009A4200D17AE04346002B00D179E0002A3B
:1036800000D17EE0404B984575D04346013B9342C4
:1036900071DC45D05346002B06D0049E059F0021C7
:1036A0007042B941049005910BAB01934346D21A85
:1036B000009222002B0004980599FFF7CBFE08909A
:1036C00009910898099902000B0012184B41AB426E
:1036D00009DC01D1A24206D8A2420DD1AB420BD1E6
:1036E0000B9BDB0708D5089A099B121BAB4108927C
:1036F00009930B9B01330B934B46002B02D00B9B82
:103700005B420B93149B002B02D00B9B149A13600B
:103710001E4A4346D21A08980999FFF7DBFD2AE0B2
:10372000059AAA420EDD5246002A12D124196D4193
:103730000499059A091BAA410891099201220B924A
:103740009846D9E7049E059FAF4214D1A642EAD815
:1037500011E024196D410499059A641A9541089461
:103760000995012252420B929846C5E7002008496C
:1037700001E0002006490CB0E0BCBA46B146A846BC
:10378000F0BD00200021F6E7FF0700003304000031
:103790000000F07F10B582B000240094FFF738FFDE
:1037A00002B010BD07B56046002800D100BE0188F8
:1037B0000A0A0230DF2AFAD1C9B2820804D3028889
:1037C00040880004104300E00068024A5050039013
:1037D00007BD0000301E00200FB403BC0CBCF0B5C8
:1037E0000124E407634000E0F0B50C0DCF0F661E26
:1037F0003605891B640503D3C943404200D3013118
:10380000640D03D0661CF60A07D0E41B00207F007D
:10381000791C89078912803C24031D0DDF0F6E1E61
:1038200036059B1B6D0503D3DB43524200D30133A6
:103830006D0D03D06E1CF60A07D0ED1B00227F0031
:103840007B1C9B079B12803D2D032F1B661B58D4AE
:10385000A446202E46DA20371400BC401D00BD408F
:10386000F24033412A4380185941CB0F05D0C94358
:10387000C043002264425041514162464D0D28D15F
:103880000D0D07D100281FD0241940414941013AAC
:103890000D0DF9D0640006D3013000D30131002CA6
:1038A00001D140084000013A0BD4941CE40A04D131
:1038B00012051144DB071944F0BDD907204B194309
:1038C00000E0D9070020F0BD0029DDD1002CDBD1BC
:1038D000F0BD0132C6074008CD0728434908002E35
:1038E000E1D0D9E73C2E29DA203E40371400BC4015
:1038F00000D00124F24014431A00BB401C43D317EC
:10390000ACE7AC46202F08DA20360400B4400D00A6
:10391000B540F84039412843A5E73C2F0CDA203F59
:1039200040360400B44000D00124F84004430800AD
:10393000B1400C43C117EAE710001900002494E7D6
:103940000000F07FF0B50C0D661E3605891BE60AF7
:103950006405640D02D0651CED0A04D0002001212D
:103960000905803C2403A4461C0D671E3F05DB1B94
:10397000E70A6405640D02D0651CED0A04D000223C
:1039800001231B05803C24037740644497B484B230
:1039900096B27443070C7E43150C6F4380B26843A4
:1039A000361802D3012000043F183004350C0019EA
:1039B0007D41844688B29AB250430C0C62431F0C7E
:1039C0007C438EB27E43921902D301263604A41999
:1039D0001604170C3618674101BC81B29AB25143E4
:1039E000040C62431B0C5C4380B25843121802D390
:1039F0000120000424181004130C401863412D18F2
:103A00005E410020474106BC88B293B258430C0C7B
:103A10006343120C544389B251435B1802D3012112
:103A20000904641819041A0C091862416D185641EA
:103A30000020474118BCF902720D1143F0026A0DD3
:103A40001043ED020A0D03D16D1940414941013B7C
:103A5000124E9B1B7600B3420ED26D0007D301308D
:103A6000002671416646354301D1400840001B05E0
:103A7000C918E4072144F0BD0BDA013306D1013047
:103A800004D101314F0D01D04908F2E7E1070020D0
:103A9000F0BD013631050020EBE70000FF03000018
:103AA000F0B51C0D671E3F05DB1BE70A6405640DBE
:103AB00002D0661CF60A04D0002201231B05803CBC
:103AC0002403D0252D060026F6432E661E096E66B9
:103AD000CE0FF619B44649004F0D02D07E1CF60AEF
:103AE00003D000200021403F3F033E1BB600B444FA
:103AF000013F7F05C91B49082E6F013676089C02DD
:103B0000950D25437543ED137543AD1301356D10C8
:103B1000F603761B0CB4CC02450D2C43A2B2B3B213
:103B20005A43270C7B43350C6F43A4B26C431B19DB
:103B300002D3012424043F191C041D0CA4187D4148
:103B400024196D41009A91B2ACB26143170C7C43C9
:103B50002B0C5F4392B25A43A41802D301221204E1
:103B6000BF182204230C52187B41019C6C431B1983
:103B7000520ED9010A434401A01A81B2B2B2514394
:103B800003145A43360C734387B27743D617D219BE
:103B900000277E4136049B191704160C7F185E41DE
:103BA0007316ED18F301002680337541A90F06D175
:103BB0006400690AE8055B0A184309D22FE0042271
:103BC000944480337541A90AA8059B0A184326D35B
:103BD000404149412404009A019B0D005543641B58
:103BE0004343E41A95B286B27543170C7E43030C27
:103BF0005F4392B25A43B61802D301221204BF188F
:103C00003204330C52197B4152429C41002C02D4A5
:103C10000022013051414008CA071043490802B050
:103C20006246D7079210084BD218084B9A4203D22B
:103C300012058918C919F0BD0020002A01DC3900DD
:103C4000F0BD01331905F5E7FD030000FE07000094
:103C500007DA002107E0C90FC907520D03D0C912C6
:103C600001E04C49090500207047C0464A00F2D2E5
:103C7000520D013A484B9A42EAD2F0B51405091B9D
:103C8000520801D3001849419B08D21812059446E6
:103C900040A44A0CA25C0B09534353431B135343E8
:103CA0005B131202D21A13005B435B0B4C08634395
:103CB000DB135343DB1501335B10D21A130CD21AFA
:103CC00013005B438902840D21438DB29EB275437C
:103CD0000F0C7E431B0C5F438CB25C43361902D33E
:103CE000012424043F193404330C64197B419D01E1
:103CF000A40E2C432034A5B25543241454432D0C58
:103D00006419A411D203121B95B28EB27543170C1D
:103D10007E430C0C674393B26343F61802D301232E
:103D20001B04FF183304340C5B197C41DB1864411D
:103D3000DB18002363419EB276439DB21F0C7D4386
:103D40007F436C04ED0BA4197D4106028F08361BDE
:103D5000AF417D07F6086E41B4B295B26C4337149B
:103D60007D43120C5743B6B25643EA17AD190026ED
:103D700072411204BF182E042A0C36197A410832F7
:103D8000521117D29D0A9C05D1171019694161443F
:103D9000F0BD0000FF070000FE070000F8EBDFD6D3
:103DA000CDC5BEB8B2ADA8A4A09C9995928F8D8ABE
:103DB0008885838152415D0ADC05D11714194D4174
:103DC0002B006343A6B27643A2B2270C7A437F430B
:103DD0005104D20B89197A41D218D2188005494270
:103DE000904102D4002301345D4160086908ED0769
:103DF00028436144F0BDC046624618CA94465A46FC
:103E0000002A20DB04E0624618CA944600291ADA28
:103E1000C01861415B463B415C46B4405246FA40A3
:103E2000224344464D4662416B41904699462B469B
:103E3000B3403D41FC401C4352465B46A241AB416E
:103E400092469B467047C01AA1414B463B414C46A7
:103E5000B4404246FA40224354465D4662416B41BB
:103E600092469B462B46B3403D41FC401C43424694
:103E70004B46A241AB41904699467047002200B59F
:103E8000203200F010F8080000BD002200B500F05C
:103E90000CF8CA179A4200D100BDD8430121C907C6
:103EA000414000BD00220B150AD410B5944600F025
:103EB000A7F81414013400DA0021CB17144C204762
:103EC0000020002170476244343A0CD40C2A07DAEF
:103ED00004009140904052422032D440214310BD12
:103EE000D843D94310BD203207D40C4694405242E7
:103EF00020321141D040204310BD0800C9172032A4
:103F000003D452422032104110BD1800190010BDD8
:103F1000C73E00104A00520D144BD21A13DDFF2A7F
:103F20001EDAD205CB0FDB071A43C300400F09038B
:103F3000490A084310435B0001D301D001307047A8
:103F40004308FBD2704702D0C80FC00770470A036E
:103F500012130132F8D1420F072AF5D1012200E0F5
:103F6000FF22C80F00028018C005704780030000C0
:103F700000210A00002104E000210A00C11704E02A
:103F80000022002306E0C0460022CB1758405940CB
:103F9000C01A994130B5184CA21A002903D101006A
:103FA00010D00020203A4C1512D104D2013A00184A
:103FB00049414C0DFAD3114CA24204D21205891882
:103FC000DB07C91830BDD243520D00200021F5E7B0
:103FD00003D4013A00184941FBD50B324405C00A0D
:103FE0004D052843C90A640003D0002460416141A3
:103FF000E1E7E0D34408F8E732040000FE070000E0
:104000000A0DCC0F531E1B05C91A520503D3C94311
:10401000404200D30131520D03D0531CDB0A07D0BC
:10402000121B00206400611C89078912803A120368
:10403000014BD21A70470000FF030000023225D462
:104040000C2A1CDA1125AD1A0B002B41083207355A
:104050000600EE40904091403143F0CC63431A1586
:1040600000235A41554356435743BF02F412760585
:1040700076196741ED177F19801BB94170470C22F3
:104080000020C917490001310905DBE70902030EC9
:10409000194300025342203208D40C0019419440C5
:1040A000D840204300225041514170470800C917B1
:1040B000203B2032F1D50020002100227047F0B5CE
:1040C000FFF712F800F00EF800F030F806E0F0B557
:1040D000FFF70AF800F006F800F046F8FFF70AF8D4
:1040E000F0BD000000B5FFF78BFF30A4FFF7A6FF7F
:1040F00000242C4D2C4ED20702D3F6436D4266416C
:10410000520004D2A246A346A846B14603E0A04608
:10411000A146AA46B3466EA4A44601271F26FFF770
:1041200072FE0137013E212FF9D100BD594684B2FC
:104130008DB26C43061475430B145E4382B25A432E
:10414000AD18EA1700D7D2431204B6182A042B0C74
:1041500012197341404649469D009B17920F2A430E
:10416000904199413E2210E7494684B28DB26C439A
:10417000061475430B145E4382B25A43AD18EA1716
:1041800000D7D2431204B6182A042B0C121973411B
:10419000504659469D009B17920F2A435041594162
:1041A0003E22F2E6BB4DF09DC556F6367D5100002D
:1041B0001A61140085880A00FB211900F0B5FEF78A
:1041C00093FF404D0C002C4001D0AC4202D1090DB0
:1041D000090500201C002C4001D0AC4202D11B0D6F
:1041E0001B0500220026ED02002B04D502266B40A1
:1041F000694000D476424F1904D599420CDD01364E
:10420000694003E0BB4207DA013E6B400700100043
:104210003A000F0019003B0040B4002A0FD1002BD8
:104220000AD05C006415013409D14C0064150134D6
:1042300002D10139013B02E0002000212EE0FFF70E
:104240002FFC3E22FFF722FE82468B4600200021F3
:1042500080460122920791461DA4A44601271F26ED
:10426000FFF7CAFD0137013E212FF9D14A465346D7
:104270000C3A01246407002752081B0005D493411F
:10428000001979416408F7D104E05341001BB9419A
:104290006408F1D1CE0749104008304340BC002EDD
:1042A0000AD0094C094D01D5E443ED43F60701D18D
:1042B00000196941001969413D22FFF766FEFEF7CA
:1042C00019FFF0BD0000F07F8D305A88A8F6433208
:1042D000694FBB610567AC1DB16E4096FCBAAD0F6E
:1042E00072DB0BABA66EF50739BD9FE576ABFE031F
:1042F0004B6297BA5BD5FF01D694DBDDAAFAFF00CB
:104300005DEAEE5655FF7F006E77B7AAEAFF3F00E1
:10431000BCBB5555FDFF1F00DEADAAAAFFFF0F0075
:104320006F5555F5FFFF0700ABAAAAFEFFFF03007C
:104330005555D5FFFFFF0100ABAAFAFFFFFF0000B4
:104340005555FFFFFF7F0000ABEAFFFFFF3F000076
:1043500055FDFFFFFF1F0000ABFFFFFFFF0F000039
:10436000F5FFFFFFFF070000FFFFFFFFFF03000057
:10437000000000000002000000000000000100003A
:10438000000000008000000000000000400000006D
:1043900000000000200000000000000010000000ED
:1043A0000000000008000000000000000400000001
:1043B00000000000020000000000000001000000FA
:1043C000000000800000000000000040000000002D
:1043D00051434343C9188C46110C83B24B4310B46C
:1043E000040C614392B280B2504362431C041B0C24
:1043F000001910BC59411304120CC01851416144FA
:104400007047000048404140484000239C46114B03
:104410005B68184700239C460E4B1B6818470E4AE2
:10442000936F9B0804D200239C460A4BDB68184715
:10443000F0B5146E556E576F166FFFF7F4FF064A0E
:104440001466556657671667F0BD00239C46014BFE
:104450009B681847341F0020000000D007B5484073
:104460004140484001E0C04607B54200120E03D06B
:10447000FF2A03D1420218D8C00DC0054A00120E0F
:1044800003D0FF2A03D14A020FD8C90DC905012262
:10449000414005D4414001D5814207BD884207BD56
:1044A0000143491801D0C043001807BD00B5FFF70C
:1044B000DBFF804100BDC04600B5FFF7CFFF804164
:1044C00000BD0000C10FC90700D54042002817D029
:1044D000F44603B40B4B1B68984706BC81409E38DA
:1044E0004042803107D20B0607D04900490AC00577
:1044F0001043084360470130F8E7490A8902F5E7AD
:1045000070470000301F002041000A0E80231B0668
:104510007E2A0BDD9E3A0BDAC11740024008184391
:104520005242D04049000131484370470020704753
:10453000C00FC01801387047C0420DD300B540000D
:104540004008002100F012F8002801D4404200BDCC
:104550008020000600BD0000034BDB69FC461847C5
:104560001CDFAD4600100000341F002000239C46D5
:10457000014B5B6A18470000341F002070B51323FD
:104580001E782A48FEF718FA0500012E11D0012ED8
:1045900009DDAB1E1B789B007F2B40DD2448802269
:1045A000290000F0C5F82348FEF7FEF9224B1860F9
:1045B00070BD1F485422290000F0BAF81F4B1A881A
:1045C0001F4B9A421CD1A7239B011A881D4B9A426C
:1045D00016D11D4B1A881D4B9A4211D11C4B1A88BB
:1045E00094239B019A420BD11A4B1A881A4B9A4278
:1045F00006D11A4B1A681A4B9A4201D1152307E0CB
:104600001848FDF7D7F8184C094A99008C50013327
:104610001F2BF8D9144B064A1362D361B7E7134B2B
:10462000134A1448422101F009FAC04653460000DB
:10463000341F00204C330000301F0020EE29000002
:10464000C40F0000C20D0000962B0000C0B5000092
:10465000182B0000CC2A000010B50000FC2C000034
:1046600051ED8764E42A011079460010B828011042
:10467000683D0110EC28011007B56046002800D104
:1046800000BE01880A0A0230DF2AFAD1C9B28208C4
:1046900004D3028840880004104300E00068024A06
:1046A0005050039007BD0000341F00200021C215A8
:1046B0008032803201D0024A10470020704700004B
:1046C000CD2A000010B5002804D04018034B9842B2
:1046D00000D810BD0248FDF76DF8C0460000042068
:1046E0004429011070B505000BF0A4FA040029005C
:1046F000FFF7E8FF200070BD70B50D000BF0A4FDC2
:1047000004002900FFF7DEFF200070BD10B50BF09C
:104710009BFA10BD01480421014B1847C01200202C
:10472000C9290010014B1B6818470000C012002067
:10473000014B5B6818470000C012002010B5FFF75E
:10474000D1FF10BD10B5FFF7CDFF10BD10B5FFF7BD
:10475000DDFF10BD10B5FFF7D9FF10BD10B5FFF795
:10476000D5FF10BD9A4200D288547047704710B5EB
:10477000002802D00B684968984710BD010000204E
:1047800007E083001B185B00501C08601078C018FD
:1047900030380A681378303BDBB2092BF1D9704707
:1047A000F0B5DE4657464E464546E0B583B09346E3
:1047B0001F000C9B9A460D9C0E9B99460F9B9B07D6
:1047C00017D0B8460F00060022E0551C4B46414664
:1047D0002020B84701342A00B442F6D33D004F46AA
:1047E0005C46019B9B46B1464646B84637002E00C4
:1047F0000EE00192A34688464E46B9460700EBE715
:10480000013C551C5346185D43463900B0472A0009
:10481000002CF5D135003E0047460F9B9B0711D475
:10482000100003B0F0BCBB46B246A946A046F0BD9E
:10483000541C4B4641462020B8472200531BB3422C
:10484000F6D3EDE7B0464E46B9462F005D46F5E794
:10485000F0B5CE46474680B585B0944698460C9D47
:104860000D9C0EAB1B789946109A119B129EB707B0
:104870001CD4002B0CD0F7070AD54F46002F02D1CD
:104880000C37374204D0013B02E030272F5501346A
:10489000944201D21F2CF8D9F70707D59C4205D2C4
:1048A0001F2C03D830272F550134F5E7F70612D512
:1048B000770505D4002C03D0944221D09C421FD010
:1048C0000F9A102A2FD00F9A022A36D01F2C0AD8FE
:1048D00030222A5501341F2C05D84A46002A32D0EE
:1048E0002D222A55013403960293019400954346E4
:1048F0006246FFF755FF05B0C0BCB946B046F0BDF3
:10490000621E012C17D00F9F102F0BD014000F9A8E
:10491000102AD8D1B206D6D51F2CD4D858222A5561
:104920000134D3E7023CB206F1D41F2CEFD8782231
:104930002A550134CAE71400C2E71F2CD3D86032CD
:104940002A550134C2E7720703D52B222A550134B8
:10495000C9E73207C7D520222A550134C3E7F0B58D
:10496000DE4657464E464546E0B593B081468A46F8
:10497000089209931CAB10CB1B789B461E9D219B74
:104980009846002C03D1102342469A439046802338
:10499000DB0046461E4042461A4218D0002C22D068
:1049A000002614E0424692061BD54121C918C9B21F
:1049B0000A39C9B2771C0AAB995529002000FEF7C5
:1049C0005BF9AC4210D31F2F0ED83E000400290023
:1049D0002000FEF751F9CBB2092BE3D83033D9B21E
:1049E000E8E76121E2E7270043460693209B059311
:1049F0001F9B049303955B46029301970AAB0093B8
:104A0000099B089A51464846FFF722FF13B0F0BCB5
:104A1000BB46B246A946A046F0BDF0B5DE465746B5
:104A20004E464546E0B597B00A900B910C929A46D7
:104A3000209B9946219F22AA13789B46249B099389
:104A4000259C289B98464A463A4302D1103293430C
:104A500098468022D20045461540434613420AD06C
:104A60004A463A4341D000252E0053460D934D4609
:104A7000099B9A4621E02E0053460D934D46099B13
:104A80009A461AE04246920623D54122D218D2B263
:104A90000A3AD2B2731C99460EAB9A55524623007D
:104AA00028003900FEF726F9BC4220D813D04B4627
:104AB0001F2B16D84E4605000F0052462300280033
:104AC0003900FEF717F9D3B2092BDBD83033DAB24D
:104AD000E0E76122DAE7AA45E9D94E460D9B9A46FE
:104AE00008E04E460D9B9A4604E0002602E04E4642
:104AF0000D9B9A4643460693279B0593269B04935A
:104B0000099B03935B46029301960EAB00935346B9
:104B10000C9A0B990A98FFF79BFE17B0F0BCBB46A6
:104B2000B246A946A046F0BDF0B5DE4657464E4611
:104B30004546E0B591B0804689460C929A461A9C4B
:104B40001B9D22002B0020002900FEF76AFB002895
:104B500000D0F2E001225242D54B20002900FEF79E
:104B60005BFB002800D0E8E001225242D14B20003C
:104B70002900FEF73BFB002800D0DEE000220023E6
:104B800020002900FEF732FB002800D0EAE006945E
:104B900007958023DB001E9A1A400D921E9A1A4236
:104BA00001D106231C930698079902000B00089276
:104BB000099303000A00024300D1DFE0080D40051D
:104BC000400DBD4EB4466044079E3203120B1E00DA
:104BD000BA4B13431F00FEF735FBB94AB94BFEF73A
:104BE000C2FAB94AB94BFEF797FA08900991002228
:104BF000B74B30003900FEF786FAB64AB64BFEF7DF
:104C0000B2FA02000B0008980999FEF785FAFEF740
:104C100031FB8346FEF716FB06000F00AF4AB04B90
:104C2000FEF7A1FA0022AF4BFEF776FAFEF722FB61
:104C30000890AD4AAD4B30003900FEF794FA0600FB
:104C40000F000898FEF7FEFAA94AAA4BFEF78BFA66
:104C500002000B0030003900FEF755FA06000F0085
:104C600002000B00FEF77FFA0A900B91089BA24A04
:104C70009446634400210022089109921B05099380
:104C80000023089332003B0030003900FEF744FA5D
:104C90000E900F9132003B0000208021C905FEF7E5
:104CA00032FA06000F000022944B0A980B99FEF787
:104CB0003CFA0022924BFEF72FFA02000B000A98F2
:104CC0000B99FEF732FA00228E4BFEF725FA02000E
:104CD0000B000A980B99FEF728FA02000B0030002F
:104CE0003900FEF719FA02000B000E980F99FEF733
:104CF0001CFA0022714BFEF70FFA089A099BFEF787
:104D000032FA06000F0008960997069A079BFEF7ED
:104D100083FA00280BD001235B429C46E344002227
:104D2000774B30003900FEF700FA089009915B4696
:104D30006333C62B45D8042623E01E9B04931D9B9A
:104D400003931C9B02930094019553460C9A494689
:104D5000404600F0FBF811B0F0BCBB46B246A94695
:104D6000A046F0BD00210022069107920694802300
:104D70001B069C46AC44634607930AE700239B4608
:104D800004261E9B1B0528D5089A099B1900114370
:104D90000FD05D4A5D4B06980799FEF735FA00285B
:104DA0007AD000225A4B06980799FEF71FFA00287E
:104DB00072D01C9B5B4506DD5A469B1A013B1C9337
:104DC00003E00526DDE700231C938023DB001E9A09
:104DD0001A431E92002600239B461D9B9E4265D2CD
:104DE0009F1B02231E9A1A400A921E9A134202D057
:104DF000002E00D000275B46002B07D0089A099BA5
:104E000006980799FEF791F9069007910022002372
:104E100020002900FEF7EAF9002800D07CE03D4B95
:104E20001E9A1340049303971C9B0293069B079CB6
:104E30000093019453460C9A4946404600F086F888
:104E4000002E00D187E71E9B9B0671D54525441C8B
:104E50005346020049462800C0475A46D317D21885
:104E60005A4005230593013E0496002303930A3319
:104E700002935B46DB0F01930092534622004946A2
:104E80004046FFF76CFD0A9B002B00D163E7020050
:104E900047460C9E1D9D53E01C9B002B9DD00D9BF7
:104EA000002B9AD01C9B013B1C9396E7002798E7A8
:104EB000FFFFEF7FFFFFEFFF01FCFFFF0000F03F70
:104EC000FB799F501344D33FB3C8608B288AC63FF9
:104ED0000000F83F61436F63A787D23F71A3790950
:104EE0004F930A400000E03F1655B5BBB16B02403E
:104EF000EF39FAFE422EE63FFF03000000002C408F
:104F000000002440000018402D431CEBE2361A3FFD
:104F100080842E41FFF7FFFF069C079D2200290099
:104F200080200006844661440B000692079376E7D2
:104F300065258CE7541C534649462020B84722007B
:104F4000931BAB42F6D3100005E7C046F0B5DE4632
:104F500057464E464546E0B595B0069007919346B4
:104F60009946209F1E9A1F9B10001900FEF759F9C1
:104F7000002831D101225242BC4B1E981F99FEF7E6
:104F800035F9002837D101225242B94B1E981F999A
:104F9000FEF742F900283DD10022B64B1E981F991A
:104FA000FEF73AF900284AD10022B34B1E981F9908
:104FB000FEF71CF9002842D1002200231E981F99F9
:104FC000FEF714F900284AD100239846229B5B057E
:104FD00000D4B0E0002452E0229B0393219B029373
:104FE00003230193A54B00934B465A460799069815
:104FF000FFF7D6FB08E1229B0393219B0293042336
:1050000001939F4B00934B465A4607990698FFF72A
:10501000C7FBF9E0229B5B070ED59A4B042222992D
:10502000039121990291019200934B465A460799A8
:105030000698FFF7B5FBE7E0934B0322EFE7229BCF
:105040000493219B039302971E9B1F9C0093019442
:105050004B465A4607990698FFF766FDD4E01E9A1C
:105060001F9B00200021FEF74EF81E901F91012388
:105070009846ABE70CAB30221A55013F01341F2C88
:1050800001D8092FF6D81E981F99FEF7F3F80500EE
:10509000FEF7D8F802000B001E981F99FEF733F8B0
:1050A0007A4BFA009B181A685B680A920B93FEF71A
:1050B0005AF808900991FEF701F90600FEF7BEF8CC
:1050C00002000B0008980999FEF71DF80890099155
:1050D00000226F4BFEF7A0F800282ED001363000DA
:1050E000FEF7ACF802000B000A980B99FEF784F863
:1050F000002801D001350026002F2CD12800FEF712
:10510000A1F802000B001E981F99FDF7FCFF060096
:105110000F0000225E4BFEF769F8002846D10022FE
:105120005B4B30003900FEF777F800283ED1EB07E3
:105130003CD501353AE006274CE70022544B08984D
:105140000999FEF753F80028D6D1002E01D0F307B5
:10515000D2D50136D0E7AA461F2C11D8013F0A212B
:105160003000FDF789FD651C30310CAB19550A2163
:105170003000FDF781FD092E0ED906002C00EBE76B
:1051800055461F2C0CD87B1E002F09D00CAA3021AD
:1051900011551F000134F4E72B0055461C00F0E7C1
:1051A0001F2C03D80CAB2E221A5501341F2C10D8FB
:1051B0000A212800FDF738FD661C30310CAB19556B
:1051C0000A212800FDF730FD051E01D03400EDE76F
:1051D00034000323229A1340012B1CD01F2C06D825
:1051E0004346002B32D00CAB2D221A550134229BA2
:1051F0000393219B029301940CAB00934B465A46B8
:1052000007990698FFF7CCFA15B0F0BCBB46B2463A
:10521000A946A046F0BD219B002B13D04346002B8E
:1052200002D10C3313420FD0219B013B2193190073
:1052300003E00CAB30221A5501348C42CED21F2C25
:10524000F7D9CBE72199F8E72199F6E7229B5B078D
:1052500004D50CAB2B221A550134C8E7229B1B073F
:10526000C5D50CAB20221A550134C0E7FFFFEFFF74
:10527000FFFFEF7F65CDCD4165CDCDC19C290110EC
:10528000A02901109029011098290110703F0110E8
:105290000000E03FF0B5DE4657464E464546E0B5D5
:1052A00093B007008A4693461193002900D12CE35E
:1052B000002508E06C1C5B462A005146B847119B4C
:1052C000013311932500119B1878002800D11EE3AB
:1052D0002528EFD1013311930023180020E001238A
:1052E000184301321192012418E0022318430132BD
:1052F0001192012412E00423184301321192012477
:105300000CE00823184301321192012406E0102317
:10531000184301321192012400E00024002C09D02E
:10532000119A1378203BD9B21029F6D88B00C449C2
:10533000CB589F468146119B1A781300303BDBB255
:10534000092B10D92A2A13D00B94119B1A782E2AD4
:1053500020D0119A1378683BD9B2122965D88B00F6
:10536000B849CB589F4611A8FFF708FA0B90ECE715
:105370001C9B1A1D1C921B68002B04DB0B93119BBA
:1053800001331193E1E702220100114389465B4298
:105390000B93F4E78022D2004946114389465A1CF8
:1053A00011925A781300303BDBB2092B0BD92A2A11
:1053B000CFD11C9B1A1D1C921C68002C08DB119B72
:1053C00001331193C5E711A8FFF7D8F90400C0E72E
:1053D0000024F4E780235B0049460B43511C1191E4
:1053E00051786C2901D099461FE0C0239B004946A3
:1053F000194389460232119217E0802349460B4334
:10540000511C11915178682901D099460DE0C023B3
:105410004946194389460232119206E080235B0017
:1054200049461943894601321192119B1878672821
:105430001CD8252800D25EE20300253BDAB2422ABE
:1054400000D958E29300804AD3589F4680239B009E
:1054500049461943894601321192E6E780235B00F1
:1054600049461943894601321192DEE7782800D96E
:1054700041E2692800D23EE20200693AD2B2012339
:105480009340724A134210D11A0600D50CE25B0514
:1054900000D430E21C9B1A1D1C921E68002C00D008
:1054A000BAE101225242330096E16F2842D005D87A
:1054B000582841D0622803D1022606E078283DD042
:1054C00010234A469A4391460A26582838D069281C
:1054D00005D0642803D00C224B46934399464B4693
:1054E0005A0502D501229343994669282DD0642894
:1054F0002BD04B469A0500D5AAE0DA0500D5C2E0CC
:105500005A0600D4D3E01C9A111D1C911168FF2289
:105510000A404B4605930B9B049303940296002389
:10552000019300925B462A0051463800FFF717FAB4
:1055300005002AE00826C8E71026C6E71026C4E7BB
:1055400020224B4613439946C1E74B469A0520D487
:10555000DA0551D45A0666D51C9A111D1C911168A2
:10556000FF220A40D017111841404B4605930B9B70
:10557000049303940296D20F019200915B462A0095
:1055800051463800FFF7EBF90500119B01331193E9
:1055900099E61C9A073207218A43110008311C91B1
:1055A000116853689C46DB170C930D930C9A0D9B66
:1055B000100048400E900D9B61464B400F930E9893
:1055C0000F990C9A0D9B801A99410E900F914B46A2
:1055D00008930B9B07930694049600230593634658
:1055E000DA0F0292009001915B462A005146380082
:1055F000FFF713FA0500C8E71C9A111D1C911268E9
:10560000D0171118414005930B9B04930394029605
:10561000D20F019200915B462A0051463800FFF7F5
:105620009EF90500B1E71A0605D51C9A111D1C91BB
:105630000023D25E96E71C9A111D1C91126891E717
:10564000D03D0110143E0110603E01104190000059
:105650001C9A073207218A43110008311C910893D4
:105660000B9B0793069404960023059302935368BB
:105670001268009201935B462A0051463800FFF7FA
:10568000CCF9050081E71C9A111D1C9105930B9B19
:1056900004930394029600230193136800935B46DE
:1056A0002A0051463800FFF75AF905006DE71A063F
:1056B00006D51C9A111D1C9112681204120C28E7C1
:1056C0001C9A111D1C91126823E746281AD01C9BB6
:1056D0000733072293431A0008321C924A46049269
:1056E0000B9A039202941A685B68009201935B46DE
:1056F0002A0051463800FFF729FC0500119B0133B1
:105700001193E0E520234A461A439146DFE76728D4
:1057100001D0472804D180231B014A461A439146F1
:10572000452801D0472803D120234A461A439146F1
:105730001C9B0733072293431A0008321C924A46E7
:1057400004920B9A039202941A685B680092019388
:105750005B462A0051463800FFF7E6F90500119B29
:1057600001331193AFE502234E461E404A461342D1
:105770001ED001241C9B1A1D1C926A1C904618788E
:105780005B462A005146B847002E14D1119B0133C5
:105790001193454697E5551C5B4651462020B84776
:1057A00023002A005C1C0B999942F4D81500E1E70C
:1057B00001232A00F6E7424606E0561C5B465146A6
:1057C0002020B8472C003200651C0B9BA342F4D864
:1057D0009046DBE701330A001978002902D0511EF8
:1057E000002AF7D19B1B8022D200494611408846EF
:1057F0004946114202D0A34200D923000222494661
:105800001140109149460A4208D02A0025009946C5
:105810003B004746984626E0220044E6A1462A007F
:105820005146B2460E0006E0551C5B463100202072
:10583000B84723002A005C1C0B999942F4D8150044
:1058400022004C46330056469A4691462A002500CF
:105850003B004746984606E01D000136541C5B4657
:105860005146C04722003078002804D0002FF4D0E1
:105870006B1E002DF0D115004B464746109A002AAA
:1058800003D1119B013311931DE50B9E2A0006E005
:10589000551C5B4651462020B84723002A005C1C5B
:1058A0009E42F5D81500ECE721234A461A4313001F
:1058B0001C9A111D1C9112680593082304930394EC
:1058C000083302930023019300925B462A0051465D
:1058D0003800FFF744F80500119B01331193F2E4FF
:1058E0006C1C5B462A0051462520B847119B0133AA
:1058F00011932500E7E46C1C5B462A005146B8472B
:10590000119B013311932500DDE40A4FD0E45D457E
:105910000DD35B465A1E5B4651460020B84728000F
:1059200013B0F0BCBB46B246A946A046F0BD2A0063
:10593000F1E7C0466D4700100EB430B584B00100E9
:1059400007AC08CC03940122054D00945242280074
:10595000FFF7A0FC04B030BC08BC03B01847C04639
:105960006547001010B584B00C0002A902904C608D
:1059700001240448009313006242FFF78BFC04B03B
:1059800010BDC0466F47001000BEFDE703000A4A85
:105990001268002A08D0084A1068C318074A9A42B9
:1059A00006D3054A13607047034A05491160F2E7C0
:1059B00001204042F7E7C0467C1D00200000042083
:1059C0004420002000207047012040427047000022
:1059D00010B5030008001100002B05D1044B1A6814
:1059E0005B6800F03FF910BD01204042FBE7C04674
:1059F000403D011010B5030008001400013B012BCD
:105A000006D801230022210000F0E2F8200010BD9A
:105A100001204042FBE70120404270470120404204
:105A200070470120404270470300002002229A4242
:105A30004041704710B5FFF7A7FF000030B583B0B5
:105A40000D001900002A0BD0074B084C019200935F
:105A50002B000200200000F09BF90120FFF794FFCB
:105A6000034B1A00F1E7C046A8290110B82901101C
:105A7000E42A011010B5EFF30583002B00D000BE1F
:105A8000FCF7E2FF034C01E008CC9847024B9C4234
:105A9000FAD310BD0C2201102022011010B5030012
:105AA000080011001B68984710BD0000F8B50700FA
:105AB0000D001600437D002B02D0002400200CE0D6
:105AC00003681100280098472DE03B7D10E03B68FB
:105AD000154802219847601C0134B44214DA002CA6
